{
  "contractName": "ERC735",
  "abi": [
    {
      "anonymous": false,
      "inputs": [
        {
          "indexed": true,
          "internalType": "bytes32",
          "name": "claimId",
          "type": "bytes32"
        },
        {
          "indexed": true,
          "internalType": "uint256",
          "name": "claimType",
          "type": "uint256"
        },
        {
          "indexed": true,
          "internalType": "address",
          "name": "issuer",
          "type": "address"
        },
        {
          "indexed": false,
          "internalType": "bytes",
          "name": "signature",
          "type": "bytes"
        },
        {
          "indexed": false,
          "internalType": "bytes",
          "name": "data",
          "type": "bytes"
        },
        {
          "indexed": false,
          "internalType": "string",
          "name": "uri",
          "type": "string"
        }
      ],
      "name": "ClaimAdded",
      "type": "event"
    },
    {
      "anonymous": false,
      "inputs": [
        {
          "indexed": true,
          "internalType": "bytes32",
          "name": "claimId",
          "type": "bytes32"
        },
        {
          "indexed": true,
          "internalType": "uint256",
          "name": "claimType",
          "type": "uint256"
        },
        {
          "indexed": true,
          "internalType": "address",
          "name": "issuer",
          "type": "address"
        },
        {
          "indexed": false,
          "internalType": "bytes",
          "name": "signature",
          "type": "bytes"
        },
        {
          "indexed": false,
          "internalType": "bytes",
          "name": "data",
          "type": "bytes"
        },
        {
          "indexed": false,
          "internalType": "string",
          "name": "uri",
          "type": "string"
        }
      ],
      "name": "ClaimChanged",
      "type": "event"
    },
    {
      "anonymous": false,
      "inputs": [
        {
          "indexed": true,
          "internalType": "bytes32",
          "name": "claimId",
          "type": "bytes32"
        },
        {
          "indexed": true,
          "internalType": "uint256",
          "name": "claimType",
          "type": "uint256"
        },
        {
          "indexed": true,
          "internalType": "address",
          "name": "issuer",
          "type": "address"
        }
      ],
      "name": "ClaimRemoved",
      "type": "event"
    },
    {
      "inputs": [
        {
          "internalType": "bytes32",
          "name": "",
          "type": "bytes32"
        }
      ],
      "name": "claims",
      "outputs": [
        {
          "internalType": "uint256",
          "name": "claimType",
          "type": "uint256"
        },
        {
          "internalType": "address",
          "name": "issuer",
          "type": "address"
        },
        {
          "internalType": "bytes",
          "name": "signature",
          "type": "bytes"
        },
        {
          "internalType": "bytes",
          "name": "data",
          "type": "bytes"
        },
        {
          "internalType": "string",
          "name": "uri",
          "type": "string"
        }
      ],
      "stateMutability": "view",
      "type": "function",
      "constant": true
    },
    {
      "inputs": [
        {
          "internalType": "uint256",
          "name": "",
          "type": "uint256"
        },
        {
          "internalType": "uint256",
          "name": "",
          "type": "uint256"
        }
      ],
      "name": "claimsByType",
      "outputs": [
        {
          "internalType": "bytes32",
          "name": "",
          "type": "bytes32"
        }
      ],
      "stateMutability": "view",
      "type": "function",
      "constant": true
    },
    {
      "inputs": [
        {
          "internalType": "bytes32",
          "name": "_claimId",
          "type": "bytes32"
        },
        {
          "internalType": "uint256",
          "name": "_claimType",
          "type": "uint256"
        },
        {
          "internalType": "address",
          "name": "_issuer",
          "type": "address"
        },
        {
          "internalType": "bytes",
          "name": "_signature",
          "type": "bytes"
        },
        {
          "internalType": "bytes",
          "name": "_data",
          "type": "bytes"
        },
        {
          "internalType": "string",
          "name": "_uri",
          "type": "string"
        }
      ],
      "name": "addClaim",
      "outputs": [
        {
          "internalType": "bool",
          "name": "success",
          "type": "bool"
        }
      ],
      "stateMutability": "nonpayable",
      "type": "function"
    },
    {
      "inputs": [
        {
          "internalType": "bytes32",
          "name": "_claimId",
          "type": "bytes32"
        }
      ],
      "name": "getClaim",
      "outputs": [
        {
          "internalType": "uint256",
          "name": "claimType",
          "type": "uint256"
        },
        {
          "internalType": "address",
          "name": "issuer",
          "type": "address"
        },
        {
          "internalType": "bytes",
          "name": "signature",
          "type": "bytes"
        },
        {
          "internalType": "bytes",
          "name": "data",
          "type": "bytes"
        },
        {
          "internalType": "string",
          "name": "uri",
          "type": "string"
        }
      ],
      "stateMutability": "view",
      "type": "function",
      "constant": true
    },
    {
      "inputs": [
        {
          "internalType": "uint256",
          "name": "_claimType",
          "type": "uint256"
        }
      ],
      "name": "getClaimsByType",
      "outputs": [
        {
          "internalType": "bytes32[]",
          "name": "_claimIds",
          "type": "bytes32[]"
        }
      ],
      "stateMutability": "view",
      "type": "function",
      "constant": true
    },
    {
      "inputs": [
        {
          "internalType": "bytes32",
          "name": "_claimId",
          "type": "bytes32"
        }
      ],
      "name": "removeClaim",
      "outputs": [
        {
          "internalType": "bool",
          "name": "success",
          "type": "bool"
        }
      ],
      "stateMutability": "nonpayable",
      "type": "function"
    }
  ],
  "bytecode": "0x608060405234801561001057600080fd5b50610f35806100206000396000f3fe608060405234801561001057600080fd5b50600436106100625760003560e01c80634eee424a146100675780638928295f1461008f578063b6684375146100b0578063c9100bcb146100c3578063d7c37e80146100e7578063eff0f59214610107575b600080fd5b61007a610075366004610c4b565b61011a565b60405190151581526020015b60405180910390f35b6100a261009d366004610d17565b6104a6565b604051908152602001610086565b61007a6100be366004610c63565b6104d7565b6100d66100d1366004610c4b565b6105fd565b604051610086959493929190610e0a565b6100fa6100f5366004610c4b565b61081d565b6040516100869190610d83565b6100d6610115366004610c4b565b61087f565b600081815260208181526040808320815160a0810183528154815260018201546001600160a01b0316938101939093526002810180548594938401919061016090610e7d565b80601f016020809104026020016040519081016040528092919081815260200182805461018c90610e7d565b80156101d95780601f106101ae576101008083540402835291602001916101d9565b820191906000526020600020905b8154815290600101906020018083116101bc57829003601f168201915b505050505081526020016003820180546101f290610e7d565b80601f016020809104026020016040519081016040528092919081815260200182805461021e90610e7d565b801561026b5780601f106102405761010080835404028352916020019161026b565b820191906000526020600020905b81548152906001019060200180831161024e57829003601f168201915b5050505050815260200160048201805461028490610e7d565b80601f01602080910402602001604051908101604052809291908181526020018280546102b090610e7d565b80156102fd5780601f106102d2576101008083540402835291602001916102fd565b820191906000526020600020905b8154815290600101906020018083116102e057829003601f168201915b5050509190925250508151919250506103545760405162461bcd60e51b815260206004820152601460248201527310db185a5b48191bd95cc81b9bdd08195e1a5cdd60621b60448201526064015b60405180910390fd5b805160009081526001602052604081209061036f8286610a50565b8254909150829061038290600190610e66565b815481106103a057634e487b7160e01b600052603260045260246000fd5b90600052602060002001548282815481106103cb57634e487b7160e01b600052603260045260246000fd5b9060005260206000200181905550818054806103f757634e487b7160e01b600052603160045260246000fd5b600082815260208082208301600019908101839055909201909255868252819052604081208181556001810180546001600160a01b03191690559061043f6002830182610aec565b61044d600383016000610aec565b61045b600483016000610aec565b5050602083015183516040516001600160a01b039092169187907f613cac6bb32cfea708f1733170620dceb8f2225421c7b71f2725a86795cf016b90600090a4506001949350505050565b600160205281600052604060002081815481106104c257600080fd5b90600052602060002001600091509150505481565b6040805160a0810182528681526001600160a01b038681166020808401918252838501888152606085018890526080850187905260008c81528083529586208551815592516001840180546001600160a01b031916919095161790935591518051849361054b926002850192910190610b2b565b5060608201518051610567916003840191602090910190610b2b565b5060808201518051610583916004840191602090910190610b2b565b5050506000878152600160208181526040808420805493840181558452922001899055516001600160a01b0387169088908a907f0ad96ff5732fc2c3c4bb6419ad7e78bfd0388f53c5b3d9bf36613296f71f9808906105e7908a908a908a90610dc7565b60405180910390a4506001979650505050505050565b600081815260208181526040808320815160a0810183528154815260018201546001600160a01b0316938101939093526002810180548594606094859485948894919284019161064c90610e7d565b80601f016020809104026020016040519081016040528092919081815260200182805461067890610e7d565b80156106c55780601f1061069a576101008083540402835291602001916106c5565b820191906000526020600020905b8154815290600101906020018083116106a857829003601f168201915b505050505081526020016003820180546106de90610e7d565b80601f016020809104026020016040519081016040528092919081815260200182805461070a90610e7d565b80156107575780601f1061072c57610100808354040283529160200191610757565b820191906000526020600020905b81548152906001019060200180831161073a57829003601f168201915b5050505050815260200160048201805461077090610e7d565b80601f016020809104026020016040519081016040528092919081815260200182805461079c90610e7d565b80156107e95780601f106107be576101008083540402835291602001916107e9565b820191906000526020600020905b8154815290600101906020018083116107cc57829003601f168201915b5050509190925250508151602083015160408401516060850151608090950151929c919b5099509297509550909350505050565b60008181526001602090815260409182902080548351818402810184019094528084526060939283018282801561087357602002820191906000526020600020905b81548152602001906001019080831161085f575b50505050509050919050565b60006020819052908152604090208054600182015460028301805492936001600160a01b03909216926108b190610e7d565b80601f01602080910402602001604051908101604052809291908181526020018280546108dd90610e7d565b801561092a5780601f106108ff5761010080835404028352916020019161092a565b820191906000526020600020905b81548152906001019060200180831161090d57829003601f168201915b50505050509080600301805461093f90610e7d565b80601f016020809104026020016040519081016040528092919081815260200182805461096b90610e7d565b80156109b85780601f1061098d576101008083540402835291602001916109b8565b820191906000526020600020905b81548152906001019060200180831161099b57829003601f168201915b5050505050908060040180546109cd90610e7d565b80601f01602080910402602001604051908101604052809291908181526020018280546109f990610e7d565b8015610a465780601f10610a1b57610100808354040283529160200191610a46565b820191906000526020600020905b815481529060010190602001808311610a2957829003601f168201915b5050505050905085565b6000805b8354811015610aa85782848281548110610a7e57634e487b7160e01b600052603260045260246000fd5b90600052602060002001541415610a96579050610ae6565b80610aa081610eb8565b915050610a54565b5060405162461bcd60e51b815260206004820152601260248201527110db185a5b481251081b9bdd08199bdd5b9960721b604482015260640161034b565b92915050565b508054610af890610e7d565b6000825580601f10610b0a5750610b28565b601f016020900490600052602060002090810190610b289190610baf565b50565b828054610b3790610e7d565b90600052602060002090601f016020900481019282610b595760008555610b9f565b82601f10610b7257805160ff1916838001178555610b9f565b82800160010185558215610b9f579182015b82811115610b9f578251825591602001919060010190610b84565b50610bab929150610baf565b5090565b5b80821115610bab5760008155600101610bb0565b600082601f830112610bd4578081fd5b813567ffffffffffffffff80821115610bef57610bef610ee9565b604051601f8301601f19908116603f01168101908282118183101715610c1757610c17610ee9565b81604052838152866020858801011115610c2f578485fd5b8360208701602083013792830160200193909352509392505050565b600060208284031215610c5c578081fd5b5035919050565b60008060008060008060c08789031215610c7b578182fd5b863595506020870135945060408701356001600160a01b0381168114610c9f578283fd5b9350606087013567ffffffffffffffff80821115610cbb578384fd5b610cc78a838b01610bc4565b94506080890135915080821115610cdc578384fd5b610ce88a838b01610bc4565b935060a0890135915080821115610cfd578283fd5b50610d0a89828a01610bc4565b9150509295509295509295565b60008060408385031215610d29578182fd5b50508035926020909101359150565b60008151808452815b81811015610d5d57602081850181015186830182015201610d41565b81811115610d6e5782602083870101525b50601f01601f19169290920160200192915050565b6020808252825182820181905260009190848201906040850190845b81811015610dbb57835183529284019291840191600101610d9f565b50909695505050505050565b600060608252610dda6060830186610d38565b8281036020840152610dec8186610d38565b90508281036040840152610e008185610d38565b9695505050505050565b8581526001600160a01b038516602082015260a060408201819052600090610e3490830186610d38565b8281036060840152610e468186610d38565b90508281036080840152610e5a8185610d38565b98975050505050505050565b600082821015610e7857610e78610ed3565b500390565b600281046001821680610e9157607f821691505b60208210811415610eb257634e487b7160e01b600052602260045260246000fd5b50919050565b6000600019821415610ecc57610ecc610ed3565b5060010190565b634e487b7160e01b600052601160045260246000fd5b634e487b7160e01b600052604160045260246000fdfea2646970667358221220d336384c3c5704d97dccb706592d662608d1b38537697701db015f072deb0db064736f6c63430008020033",
  "immutableReferences": {},
  "source": "// SPDX-License-Identifier: MIT\r\npragma solidity ^0.8.0;\r\n\r\nimport \"./ERC725.sol\";\r\n\r\n//import \"@openzeppelin/contracts/access/Ownable.sol\";\r\n\r\ncontract ERC735 {\r\n    struct Claim {\r\n        uint256 claimType;\r\n        address issuer;\r\n        bytes signature;\r\n        bytes data;\r\n        string uri;\r\n    }\r\n\r\n    mapping(bytes32 => Claim) public claims;\r\n    mapping(uint256 => bytes32[]) public claimsByType;\r\n\r\n    event ClaimAdded(bytes32 indexed claimId, uint256 indexed claimType, address indexed issuer, bytes signature, bytes data, string uri);\r\n    event ClaimRemoved(bytes32 indexed claimId, uint256 indexed claimType, address indexed issuer);\r\n    event ClaimChanged(bytes32 indexed claimId, uint256 indexed claimType, address indexed issuer, bytes signature, bytes data, string uri);\r\n\r\n    // Function to add a claim\r\n    function addClaim(\r\n        bytes32 _claimId,\r\n        uint256 _claimType,\r\n        address _issuer,\r\n        bytes memory _signature,\r\n        bytes memory _data,\r\n        string memory _uri\r\n    ) public returns (bool success) {\r\n        Claim memory claim = Claim({\r\n            claimType: _claimType,\r\n            issuer: _issuer,\r\n            signature: _signature,\r\n            data: _data,\r\n            uri: _uri\r\n        });\r\n\r\n        claims[_claimId] = claim;\r\n        claimsByType[_claimType].push(_claimId);\r\n\r\n        emit ClaimAdded(_claimId, _claimType, _issuer, _signature, _data, _uri);\r\n        return true;\r\n    }\r\n\r\n    // Function to get a claim by its ID\r\n    function getClaim(bytes32 _claimId) public view returns (\r\n        uint256 claimType,\r\n        address issuer,\r\n        bytes memory signature,\r\n        bytes memory data,\r\n        string memory uri\r\n    ) {\r\n        Claim memory claim = claims[_claimId];\r\n        return (\r\n            claim.claimType,\r\n            claim.issuer,\r\n            claim.signature,\r\n            claim.data,\r\n            claim.uri\r\n        );\r\n    }\r\n\r\n    // Function to get claims by type\r\n    function getClaimsByType(uint256 _claimType) public view returns (bytes32[] memory _claimIds) {\r\n        return claimsByType[_claimType];\r\n    }\r\n\r\n    // Function to remove a claim\r\n    function removeClaim(bytes32 _claimId) public returns (bool success) {\r\n        Claim memory claim = claims[_claimId];\r\n        require(claim.claimType != 0, \"Claim does not exist\");\r\n\r\n        // Remove claim from claimsByType\r\n        bytes32[] storage typeClaims = claimsByType[claim.claimType];\r\n        uint256 claimIndex = findClaimIndex(typeClaims, _claimId);\r\n        typeClaims[claimIndex] = typeClaims[typeClaims.length - 1];\r\n        typeClaims.pop();\r\n\r\n        delete claims[_claimId];\r\n\r\n        emit ClaimRemoved(_claimId, claim.claimType, claim.issuer);\r\n        return true;\r\n    }\r\n\r\n    // Helper function to find claim index\r\n    function findClaimIndex(bytes32[] storage claimIds, bytes32 claimId) internal view returns (uint256) {\r\n        for (uint256 i = 0; i < claimIds.length; i++) {\r\n            if (claimIds[i] == claimId) {\r\n                return i;\r\n            }\r\n        }\r\n        revert(\"Claim ID not found\");\r\n    }\r\n}\r\n",
  "sourcePath": "/compiler/contracts/implementation/identity/ERC735.sol",
  "compiler": {
    "name": "solc",
    "version": "0.8.2+commit.661d1103.Emscripten.clang"
  },
  "schemaVersion": "3.4.16",
  "updatedAt": "2024-11-20T09:17:17.218Z",
  "networkType": "ethereum",
  "devdoc": {
    "kind": "dev",
    "methods": {},
    "version": 1
  },
  "userdoc": {
    "kind": "user",
    "methods": {},
    "version": 1
  }
}