{
  "contractName": "IdentityProvider",
  "abi": [
    {
      "inputs": [
        {
          "internalType": "address[]",
          "name": "initialAuthorities",
          "type": "address[]"
        },
        {
          "internalType": "address[]",
          "name": "initialServices",
          "type": "address[]"
        }
      ],
      "stateMutability": "nonpayable",
      "type": "constructor"
    },
    {
      "anonymous": false,
      "inputs": [
        {
          "indexed": true,
          "internalType": "address",
          "name": "user",
          "type": "address"
        },
        {
          "indexed": true,
          "internalType": "address",
          "name": "issuer",
          "type": "address"
        }
      ],
      "name": "ClaimIssued",
      "type": "event"
    },
    {
      "anonymous": false,
      "inputs": [
        {
          "indexed": false,
          "internalType": "bytes32",
          "name": "dataHash",
          "type": "bytes32"
        },
        {
          "indexed": false,
          "internalType": "bytes32",
          "name": "ethSignedMessageHash",
          "type": "bytes32"
        },
        {
          "indexed": false,
          "internalType": "address",
          "name": "recoveredAddress",
          "type": "address"
        },
        {
          "indexed": false,
          "internalType": "bool",
          "name": "isValidSignature",
          "type": "bool"
        }
      ],
      "name": "Debug",
      "type": "event"
    },
    {
      "anonymous": false,
      "inputs": [
        {
          "indexed": false,
          "internalType": "bytes32",
          "name": "r",
          "type": "bytes32"
        },
        {
          "indexed": false,
          "internalType": "bytes32",
          "name": "s",
          "type": "bytes32"
        },
        {
          "indexed": false,
          "internalType": "uint8",
          "name": "v",
          "type": "uint8"
        },
        {
          "indexed": false,
          "internalType": "address",
          "name": "recoveredAddress",
          "type": "address"
        }
      ],
      "name": "DebugSignature",
      "type": "event"
    },
    {
      "anonymous": false,
      "inputs": [
        {
          "indexed": true,
          "internalType": "address",
          "name": "previousOwner",
          "type": "address"
        },
        {
          "indexed": true,
          "internalType": "address",
          "name": "newOwner",
          "type": "address"
        }
      ],
      "name": "OwnershipTransferred",
      "type": "event"
    },
    {
      "anonymous": false,
      "inputs": [
        {
          "indexed": true,
          "internalType": "address",
          "name": "user",
          "type": "address"
        },
        {
          "indexed": false,
          "internalType": "bool",
          "name": "success",
          "type": "bool"
        }
      ],
      "name": "UserAuthenticated",
      "type": "event"
    },
    {
      "anonymous": false,
      "inputs": [
        {
          "indexed": true,
          "internalType": "address",
          "name": "user",
          "type": "address"
        },
        {
          "indexed": false,
          "internalType": "address",
          "name": "identity",
          "type": "address"
        }
      ],
      "name": "UserRegistered",
      "type": "event"
    },
    {
      "inputs": [],
      "name": "owner",
      "outputs": [
        {
          "internalType": "address",
          "name": "",
          "type": "address"
        }
      ],
      "stateMutability": "view",
      "type": "function",
      "constant": true
    },
    {
      "inputs": [],
      "name": "renounceOwnership",
      "outputs": [],
      "stateMutability": "nonpayable",
      "type": "function"
    },
    {
      "inputs": [],
      "name": "totalAuthorities",
      "outputs": [
        {
          "internalType": "uint256",
          "name": "",
          "type": "uint256"
        }
      ],
      "stateMutability": "view",
      "type": "function",
      "constant": true
    },
    {
      "inputs": [],
      "name": "totalServices",
      "outputs": [
        {
          "internalType": "uint256",
          "name": "",
          "type": "uint256"
        }
      ],
      "stateMutability": "view",
      "type": "function",
      "constant": true
    },
    {
      "inputs": [
        {
          "internalType": "address",
          "name": "newOwner",
          "type": "address"
        }
      ],
      "name": "transferOwnership",
      "outputs": [],
      "stateMutability": "nonpayable",
      "type": "function"
    },
    {
      "inputs": [
        {
          "internalType": "address",
          "name": "",
          "type": "address"
        }
      ],
      "name": "trustedAuthorities",
      "outputs": [
        {
          "internalType": "bool",
          "name": "",
          "type": "bool"
        }
      ],
      "stateMutability": "view",
      "type": "function",
      "constant": true
    },
    {
      "inputs": [
        {
          "internalType": "address",
          "name": "",
          "type": "address"
        }
      ],
      "name": "trustedServices",
      "outputs": [
        {
          "internalType": "bool",
          "name": "",
          "type": "bool"
        }
      ],
      "stateMutability": "view",
      "type": "function",
      "constant": true
    },
    {
      "inputs": [
        {
          "internalType": "address",
          "name": "",
          "type": "address"
        }
      ],
      "name": "userIdentities",
      "outputs": [
        {
          "internalType": "address",
          "name": "",
          "type": "address"
        }
      ],
      "stateMutability": "view",
      "type": "function",
      "constant": true
    },
    {
      "inputs": [
        {
          "internalType": "address",
          "name": "",
          "type": "address"
        }
      ],
      "name": "userVerified",
      "outputs": [
        {
          "internalType": "bool",
          "name": "",
          "type": "bool"
        }
      ],
      "stateMutability": "view",
      "type": "function",
      "constant": true
    },
    {
      "inputs": [
        {
          "internalType": "address",
          "name": "authority",
          "type": "address"
        }
      ],
      "name": "isTrustedAuthority",
      "outputs": [
        {
          "internalType": "bool",
          "name": "",
          "type": "bool"
        }
      ],
      "stateMutability": "view",
      "type": "function",
      "constant": true
    },
    {
      "inputs": [
        {
          "internalType": "address",
          "name": "service",
          "type": "address"
        }
      ],
      "name": "isTrustedService",
      "outputs": [
        {
          "internalType": "bool",
          "name": "",
          "type": "bool"
        }
      ],
      "stateMutability": "view",
      "type": "function",
      "constant": true
    },
    {
      "inputs": [
        {
          "internalType": "address",
          "name": "authority",
          "type": "address"
        }
      ],
      "name": "addTrustedAuthority",
      "outputs": [],
      "stateMutability": "nonpayable",
      "type": "function"
    },
    {
      "inputs": [
        {
          "internalType": "address",
          "name": "service",
          "type": "address"
        }
      ],
      "name": "addTrustedService",
      "outputs": [],
      "stateMutability": "nonpayable",
      "type": "function"
    },
    {
      "inputs": [
        {
          "internalType": "address",
          "name": "service",
          "type": "address"
        }
      ],
      "name": "removeTrustedService",
      "outputs": [],
      "stateMutability": "nonpayable",
      "type": "function"
    },
    {
      "inputs": [
        {
          "internalType": "address",
          "name": "authority",
          "type": "address"
        }
      ],
      "name": "removeTrustedAuthority",
      "outputs": [],
      "stateMutability": "nonpayable",
      "type": "function"
    },
    {
      "inputs": [
        {
          "internalType": "address",
          "name": "user",
          "type": "address"
        }
      ],
      "name": "isUserVerified",
      "outputs": [
        {
          "internalType": "bool",
          "name": "",
          "type": "bool"
        }
      ],
      "stateMutability": "view",
      "type": "function",
      "constant": true
    },
    {
      "inputs": [
        {
          "internalType": "address",
          "name": "user",
          "type": "address"
        },
        {
          "internalType": "bytes32",
          "name": "claimId",
          "type": "bytes32"
        },
        {
          "internalType": "bytes",
          "name": "signature",
          "type": "bytes"
        },
        {
          "internalType": "string",
          "name": "claimData",
          "type": "string"
        },
        {
          "internalType": "string",
          "name": "url",
          "type": "string"
        }
      ],
      "name": "register",
      "outputs": [
        {
          "internalType": "bool",
          "name": "",
          "type": "bool"
        }
      ],
      "stateMutability": "nonpayable",
      "type": "function"
    },
    {
      "inputs": [
        {
          "internalType": "address",
          "name": "user",
          "type": "address"
        }
      ],
      "name": "isRegistered",
      "outputs": [
        {
          "internalType": "bool",
          "name": "",
          "type": "bool"
        }
      ],
      "stateMutability": "view",
      "type": "function",
      "constant": true
    },
    {
      "inputs": [
        {
          "internalType": "address",
          "name": "user",
          "type": "address"
        },
        {
          "internalType": "bytes32",
          "name": "claimId",
          "type": "bytes32"
        }
      ],
      "name": "authenticate",
      "outputs": [
        {
          "internalType": "bool",
          "name": "",
          "type": "bool"
        }
      ],
      "stateMutability": "nonpayable",
      "type": "function"
    }
  ],
  "bytecode": "0x60806040523480156200001157600080fd5b5060405162002ff138038062002ff1833981016040819052620000349162000379565b6200003f336200017c565b60005b8251811015620000d3576001600360008584815181106200007357634e487b7160e01b600052603260045260246000fd5b6020908102919091018101516001600160a01b031682528101919091526040016000908120805460ff1916921515929092179091556005805491620000b883620003e0565b91905055508080620000ca90620003e0565b91505062000042565b5060005b815181101562000168576001600460008484815181106200010857634e487b7160e01b600052603260045260246000fd5b6020908102919091018101516001600160a01b031682528101919091526040016000908120805460ff19169215159290921790915560068054916200014d83620003e0565b919050555080806200015f90620003e0565b915050620000d7565b506200017433620001cc565b50506200041e565b600080546001600160a01b038381166001600160a01b0319831681178455604051919092169283917f8be0079c531659141344cd1fd0a4f28419497f9722a3daafe3b4186f6b6457e09190a35050565b620001d66200024f565b6001600160a01b038116620002415760405162461bcd60e51b815260206004820152602660248201527f4f776e61626c653a206e6577206f776e657220697320746865207a65726f206160448201526564647265737360d01b60648201526084015b60405180910390fd5b6200024c816200017c565b50565b6000546001600160a01b03163314620002ab5760405162461bcd60e51b815260206004820181905260248201527f4f776e61626c653a2063616c6c6572206973206e6f7420746865206f776e6572604482015260640162000238565b565b80516001600160a01b0381168114620002c557600080fd5b919050565b600082601f830112620002db578081fd5b815160206001600160401b0380831115620002fa57620002fa62000408565b818302604051601f19603f8301168101818110848211171562000321576200032162000408565b6040528481528381019250868401828801850189101562000340578687fd5b8692505b858310156200036d576200035881620002ad565b84529284019260019290920191840162000344565b50979650505050505050565b600080604083850312156200038c578182fd5b82516001600160401b0380821115620003a3578384fd5b620003b186838701620002ca565b93506020850151915080821115620003c7578283fd5b50620003d685828601620002ca565b9150509250929050565b60006000198214156200040157634e487b7160e01b81526011600452602481fd5b5060010190565b634e487b7160e01b600052604160045260246000fd5b612bc3806200042e6000396000f3fe60806040523480156200001157600080fd5b50600436106200013c5760003560e01c80638da5cb5b11620000bd578063ced2b3bb116200007b578063ced2b3bb1462000322578063e93894c71462000339578063f234b8911462000368578063f2fde38b146200037f578063f5508a111462000396576200013c565b80638da5cb5b146200026a57806397475316146200027c578063ace417e01462000293578063be5131d114620002c2578063c3c5a54714620002f1576200013c565b806332de9e3f116200010b57806332de9e3f14620001f35780636301ac8f1462000219578063715018a614620002235780637af408e1146200022d5780637e11bd2b1462000244576200013c565b80631427e441146200014157806317cc8e61146200015e5780631b19454914620001775780633077f71d14620001bc575b600080fd5b6200014b60055481565b6040519081526020015b60405180910390f35b620001756200016f36600462000e16565b620003ad565b005b620001a36200018836600462000e16565b6001602052600090815260409020546001600160a01b031681565b6040516001600160a01b03909116815260200162000155565b620001e2620001cd36600462000e16565b60036020526000908152604090205460ff1681565b604051901515815260200162000155565b620001e26200020436600462000e16565b60026020526000908152604090205460ff1681565b6200014b60065481565b6200017562000461565b620001756200023e36600462000e16565b62000479565b620001e26200025536600462000e16565b60046020526000908152604090205460ff1681565b6000546001600160a01b0316620001a3565b620001756200028d36600462000e16565b62000515565b620001e2620002a436600462000e16565b6001600160a01b031660009081526002602052604090205460ff1690565b620001e2620002d336600462000e16565b6001600160a01b031660009081526003602052604090205460ff1690565b620001e26200030236600462000e16565b6001600160a01b0390811660009081526001602052604090205416151590565b620001e26200033336600462000e63565b620005b9565b620001e26200034a36600462000e16565b6001600160a01b031660009081526004602052604090205460ff1690565b620001e26200037936600462000e35565b62000851565b620001756200039036600462000e16565b62000b71565b62000175620003a736600462000e16565b62000bf0565b620003b762000c98565b6001600160a01b03811660009081526003602052604090205460ff1615620004265760405162461bcd60e51b815260206004820152601b60248201527f416c72656164792061207472757374656420617574686f72697479000000000060448201526064015b60405180910390fd5b6001600160a01b0381166000908152600360205260408120805460ff19166001179055600580549162000459836200115c565b919050555050565b6200046b62000c98565b62000477600062000cf4565b565b6200048362000c98565b6001600160a01b03811660009081526004602052604090205460ff16620004e55760405162461bcd60e51b81526020600482015260156024820152744e6f7420612074727573746564207365727669636560581b60448201526064016200041d565b6001600160a01b0381166000908152600360205260408120805460ff191690556006805491620004598362001142565b6200051f62000c98565b6001600160a01b03811660009081526003602052604090205460ff16620005895760405162461bcd60e51b815260206004820152601760248201527f4e6f742061207472757374656420617574686f7269747900000000000000000060448201526064016200041d565b6001600160a01b0381166000908152600360205260408120805460ff191690556005805491620004598362001142565b3360009081526003602052604081205460ff166200062c5760405162461bcd60e51b815260206004820152602960248201527f4f6e6c79207472757374656420617574686f7269746965732063616e20697373604482015268756520636c61696d7360b81b60648201526084016200041d565b6001600160a01b038681166000908152600160205260409020541615620006965760405162461bcd60e51b815260206004820152601a60248201527f5573657220697320616c7265616479207265676973746572656400000000000060448201526064016200041d565b600086604051620006a79062000d44565b6001600160a01b039091168152602001604051809103906000f080158015620006d4573d6000803e3d6000fd5b506001600160a01b0388811660009081526001602081815260409283902080546001600160a01b03191694861694851790559151939450919263b6684375928a92909133918b9162000729918c91016200102c565b604051602081830303815290604052896040518763ffffffff1660e01b81526004016200075c969594939291906200104a565b602060405180830381600087803b1580156200077757600080fd5b505af11580156200078c573d6000803e3d6000fd5b505050506040513d601f19601f82011682018060405250810190620007b2919062000f27565b506040516001600160a01b0382811682528816907f2138b9314634f9fdd5e49bee3eaf17ca557b6637524d0db759711c3bfcd3d8509060200160405180910390a260405133906001600160a01b038916907fc837d65da32da30eb234e196a0c1b6a76ac922af839b173485584b2472000b2590600090a350506001600160a01b0385811660009081526001602052604090205416151595945050505050565b6001600160a01b03828116600090815260016020526040812054909116620008b25760405162461bcd60e51b8152602060048201526013602482015272155cd95c881b9bdd081c9959da5cdd195c9959606a1b60448201526064016200041d565b6001600160a01b0383811660009081526001602052604080822054905163c9100bcb60e01b81526004810186905292169182919081908190849063c9100bcb9060240160006040518083038186803b1580156200090e57600080fd5b505afa15801562000923573d6000803e3d6000fd5b505050506040513d6000823e601f3d908101601f191682016040526200094d919081019062000f49565b506001600160a01b038316600090815260036020526040902054929650909450925060ff169050620009cc5760405162461bcd60e51b815260206004820152602160248201527f497373756572206973206e6f742061207472757374656420617574686f7269746044820152607960f81b60648201526084016200041d565b600081604051602001620009e191906200102c565b604051602081830303815290604052805190602001209050600062000a53826040517f19457468657265756d205369676e6564204d6573736167653a0a3332000000006020820152603c8101829052600090605c01604051602081830303815290604052805190602001209050919050565b6001600160a01b03861660009081526003602052604090205490915060ff168062000ab85760405162461bcd60e51b815260206004820152601460248201527314da59db985d1d5c99481a5cc81a5b9d985b1a5960621b60448201526064016200041d565b60408051848152602081018490526001600160a01b03881681830152821515606082015290517fdf296c2f5d040d953f1b9b7485c77520e11a97a91aeb41bbf7661d5bdc8668139181900360800190a16001600160a01b038b16600081815260026020908152604091829020805460ff191685151590811790915591519182527f297fcf4a80c00fc75b80bbe3ce4f2c31caaaeee3f0b636677d53ed059538e1dd910160405180910390a29a9950505050505050505050565b62000b7b62000c98565b6001600160a01b03811662000be25760405162461bcd60e51b815260206004820152602660248201527f4f776e61626c653a206e6577206f776e657220697320746865207a65726f206160448201526564647265737360d01b60648201526084016200041d565b62000bed8162000cf4565b50565b62000bfa62000c98565b6001600160a01b03811660009081526004602052604090205460ff161562000c655760405162461bcd60e51b815260206004820152601960248201527f416c72656164792061207472757374656420736572766963650000000000000060448201526064016200041d565b6001600160a01b0381166000908152600360205260408120805460ff19166001179055600680549162000459836200115c565b6000546001600160a01b03163314620004775760405162461bcd60e51b815260206004820181905260248201527f4f776e61626c653a2063616c6c6572206973206e6f7420746865206f776e657260448201526064016200041d565b600080546001600160a01b038381166001600160a01b0319831681178455604051919092169283917f8be0079c531659141344cd1fd0a4f28419497f9722a3daafe3b4186f6b6457e09190a35050565b6119d180620011bd83390190565b600062000d6962000d6384620010e4565b620010b0565b905082815283838301111562000d7e57600080fd5b828260208301376000602084830101529392505050565b600062000da662000d6384620010e4565b905082815283838301111562000dbb57600080fd5b62000dcb8360208301846200110f565b9392505050565b600082601f83011262000de3578081fd5b62000dcb8383516020850162000d95565b600082601f83011262000e05578081fd5b62000dcb8383356020850162000d52565b60006020828403121562000e28578081fd5b813562000dcb81620011a6565b6000806040838503121562000e48578081fd5b823562000e5581620011a6565b946020939093013593505050565b600080600080600060a0868803121562000e7b578081fd5b853562000e8881620011a6565b945060208601359350604086013567ffffffffffffffff8082111562000eac578283fd5b818801915088601f83011262000ec0578283fd5b62000ed18983356020850162000d52565b9450606088013591508082111562000ee7578283fd5b62000ef589838a0162000df4565b9350608088013591508082111562000f0b578283fd5b5062000f1a8882890162000df4565b9150509295509295909350565b60006020828403121562000f39578081fd5b8151801515811462000dcb578182fd5b600080600080600060a0868803121562000f61578081fd5b85519450602086015162000f7581620011a6565b604087015190945067ffffffffffffffff8082111562000f93578283fd5b62000fa189838a0162000dd2565b9450606088015191508082111562000fb7578283fd5b62000fc589838a0162000dd2565b9350608088015191508082111562000fdb578283fd5b508601601f8101881362000fed578182fd5b62000f1a8882516020840162000d95565b60008151808452620010188160208601602086016200110f565b601f01601f19169290920160200192915050565b60008251620010408184602087016200110f565b9190910192915050565b600087825286602083015260018060a01b038616604083015260c060608301526200107960c083018662000ffe565b82810360808401526200108d818662000ffe565b905082810360a0840152620010a3818562000ffe565b9998505050505050505050565b604051601f8201601f1916810167ffffffffffffffff81118282101715620010dc57620010dc62001190565b604052919050565b600067ffffffffffffffff82111562001101576200110162001190565b50601f01601f191660200190565b60005b838110156200112c57818101518382015260200162001112565b838111156200113c576000848401525b50505050565b6000816200115457620011546200117a565b506000190190565b60006000198214156200117357620011736200117a565b5060010190565b634e487b7160e01b600052601160045260246000fd5b634e487b7160e01b600052604160045260246000fd5b6001600160a01b038116811462000bed57600080fdfe608060405234801561001057600080fd5b50604051620019d1380380620019d18339810160408190526100319161011d565b6040516001600160601b0319606083901b166020820152610073906034016040516020818303038152906040528051906020012060018061007a60201b60201c565b505061014b565b6000838152602081905260408120600201546100ac576000848152602081905260409020600281018590556001018290555b60008481526020818152604080832080546001818101835591855283852001879055868452808352818420805491820181558452918320909101869055518391859187917f480000bb1edad8ca1470381cc334b1917fbd51c6531f3a623ea8e0ec7e38a6e991a45060019392505050565b60006020828403121561012e578081fd5b81516001600160a01b0381168114610144578182fd5b9392505050565b611876806200015b6000396000f3fe608060405234801561001057600080fd5b506004361061012c5760003560e01c80639e140cc8116100ad578063d202158d11610071578063d202158d1461025f578063d7c37e8014610272578063dde5b7a114610285578063eff0f592146102c4578063fb307b34146102d75761012c565b80639e140cc814610218578063ad376eff14610131578063b668437514610220578063c670218714610233578063c9100bcb1461023b5761012c565b80636a19c073116100f45780636a19c073146101b757806370e6fd37146101ca57806375e5598c146101dd5780638928295f146101e55780639010f726146101f85761012c565b8063058b316c1461013157806312aaac701461014c5780631d3812401461016e5780634eee424a1461019157806353d413c5146101a4575b600080fd5b610139600181565b6040519081526020015b60405180910390f35b61015f61015a3660046114d6565b6102f7565b604051610143939291906116e3565b61018161017c3660046115c3565b610393565b6040519015158152602001610143565b61018161019f3660046114d6565b610436565b6101816101b23660046114ee565b6107c6565b6101396101c53660046115ee565b610a64565b6101816101d83660046114d6565b610a95565b610139600281565b6101396101f33660046115ee565b610aa2565b61020b6102063660046114d6565b610abe565b6040516101439190611685565b610139600481565b61018161022e36600461150f565b610b20565b610139600381565b61024e6102493660046114d6565b610c4d565b60405161014395949392919061174b565b61018161026d3660046114ee565b610e70565b61020b6102803660046114d6565b610f2b565b6102af6102933660046114d6565b6000602081905290815260409020600181015460029091015482565b60408051928352602083019190915201610143565b61024e6102d23660046114d6565b610f8b565b6102ea6102e53660046114d6565b61115d565b60405161014391906116c9565b600081815260208181526040808320815181546080948102820185019093526060818101848152909594859485949284929091849184018282801561035b57602002820191906000526020600020905b815481526020019060010190808311610347575b505050918352505060018201546020808301919091526002909201546040918201528251918301519201519097919650945092505050565b6000838152602081905260408120600201546103c5576000848152602081905260409020600281018590556001018290555b60008481526020818152604080832080546001818101835591855283852001879055868452808352818420805491820181558452918320909101869055518391859187917f480000bb1edad8ca1470381cc334b1917fbd51c6531f3a623ea8e0ec7e38a6e991a45060019392505050565b6000818152600260208181526040808420815160a0810183528154815260018201546001600160a01b03169381019390935292830180548594928401919061047d906117be565b80601f01602080910402602001604051908101604052809291908181526020018280546104a9906117be565b80156104f65780601f106104cb576101008083540402835291602001916104f6565b820191906000526020600020905b8154815290600101906020018083116104d957829003601f168201915b5050505050815260200160038201805461050f906117be565b80601f016020809104026020016040519081016040528092919081815260200182805461053b906117be565b80156105885780601f1061055d57610100808354040283529160200191610588565b820191906000526020600020905b81548152906001019060200180831161056b57829003601f168201915b505050505081526020016004820180546105a1906117be565b80601f01602080910402602001604051908101604052809291908181526020018280546105cd906117be565b801561061a5780601f106105ef5761010080835404028352916020019161061a565b820191906000526020600020905b8154815290600101906020018083116105fd57829003601f168201915b5050509190925250508151919250506106715760405162461bcd60e51b815260206004820152601460248201527310db185a5b48191bd95cc81b9bdd08195e1a5cdd60621b60448201526064015b60405180910390fd5b805160009081526003602052604081209061068c82866111bb565b8254909150829061069f906001906117a7565b815481106106bd57634e487b7160e01b600052603260045260246000fd5b90600052602060002001548282815481106106e857634e487b7160e01b600052603260045260246000fd5b90600052602060002001819055508180548061071457634e487b7160e01b600052603160045260246000fd5b600082815260208082208301600019908101839055909201909255868252600290819052604082208281556001810180546001600160a01b0319169055919061075f90830182611377565b61076d600383016000611377565b61077b600483016000611377565b5050602083015183516040516001600160a01b039092169187907f613cac6bb32cfea708f1733170620dceb8f2225421c7b71f2725a86795cf016b90600090a4506001949350505050565b6000828152602081905260408120600201546108195760405162461bcd60e51b815260206004820152601260248201527112d95e48191bd95cc81b9bdd08195e1a5cdd60721b6044820152606401610668565b60008381526020819052604081206108319084611251565b60008581526020819052604090205490915081106108915760405162461bcd60e51b815260206004820152601960248201527f507572706f7365206e6f7420666f756e6420666f72206b6579000000000000006044820152606401610668565b600084815260208190526040902080546108ad906001906117a7565b815481106108cb57634e487b7160e01b600052603260045260246000fd5b9060005260206000200154600080868152602001908152602001600020600001828154811061090a57634e487b7160e01b600052603260045260246000fd5b6000918252602080832090910192909255858152908190526040902080548061094357634e487b7160e01b600052603160045260246000fd5b60008281526020808220830160001990810183905590920190925584825260019052604081209061097482876112e6565b82549091508290610987906001906117a7565b815481106109a557634e487b7160e01b600052603260045260246000fd5b90600052602060002001548282815481106109d057634e487b7160e01b600052603260045260246000fd5b9060005260206000200181905550818054806109fc57634e487b7160e01b600052603160045260246000fd5b600190038181906000526020600020016000905590556000808781526020019081526020016000206001015485877f585a4aef50f8267a92b32412b331b20f7f8b96f2245b253b9cc50dcc621d339760405160405180910390a4600193505050505b92915050565b60016020528160005260406000208181548110610a8057600080fd5b90600052602060002001600091509150505481565b6000610a5e826003610e70565b60036020528160005260406000208181548110610a8057600080fd5b600081815260016020908152604091829020805483518184028101840190945280845260609392830182828015610b1457602002820191906000526020600020905b815481526020019060010190808311610b00575b50505050509050919050565b6040805160a0810182528681526001600160a01b038681166020808401918252838501888152606085018890526080850187905260008c815260028084529681208651815593516001850180546001600160a01b031916919096161790945551805193958594610b979391850192909101906113b6565b5060608201518051610bb39160038401916020909101906113b6565b5060808201518051610bcf9160048401916020909101906113b6565b505050600087815260036020908152604080832080546001810182559084529190922001899055516001600160a01b0387169088908a907f0ad96ff5732fc2c3c4bb6419ad7e78bfd0388f53c5b3d9bf36613296f71f980890610c37908a908a908a90611708565b60405180910390a4506001979650505050505050565b6000818152600260208181526040808420815160a0810183528154815260018201546001600160a01b0316938101939093529283018054859460609485948594889492939291840191610c9f906117be565b80601f0160208091040260200160405190810160405280929190818152602001828054610ccb906117be565b8015610d185780601f10610ced57610100808354040283529160200191610d18565b820191906000526020600020905b815481529060010190602001808311610cfb57829003601f168201915b50505050508152602001600382018054610d31906117be565b80601f0160208091040260200160405190810160405280929190818152602001828054610d5d906117be565b8015610daa5780601f10610d7f57610100808354040283529160200191610daa565b820191906000526020600020905b815481529060010190602001808311610d8d57829003601f168201915b50505050508152602001600482018054610dc3906117be565b80601f0160208091040260200160405190810160405280929190818152602001828054610def906117be565b8015610e3c5780601f10610e1157610100808354040283529160200191610e3c565b820191906000526020600020905b815481529060010190602001808311610e1f57829003601f168201915b5050509190925250508151602083015160408401516060850151608090950151929c919b5099509297509550909350505050565b60008281526020818152604080832080548251818502810185019093528083528493830182828015610ec157602002820191906000526020600020905b815481526020019060010190808311610ead575b5050505050905060005b8151811015610f205783828281518110610ef557634e487b7160e01b600052603260045260246000fd5b60200260200101511415610f0e57600192505050610a5e565b80610f18816117f9565b915050610ecb565b506000949350505050565b600081815260036020908152604091829020805483518184028101840190945280845260609392830182828015610b145760200282019190600052602060002090815481526020019060010190808311610b005750505050509050919050565b600260208190526000918252604090912080546001820154928201805491936001600160a01b03169291610fbe906117be565b80601f0160208091040260200160405190810160405280929190818152602001828054610fea906117be565b80156110375780601f1061100c57610100808354040283529160200191611037565b820191906000526020600020905b81548152906001019060200180831161101a57829003601f168201915b50505050509080600301805461104c906117be565b80601f0160208091040260200160405190810160405280929190818152602001828054611078906117be565b80156110c55780601f1061109a576101008083540402835291602001916110c5565b820191906000526020600020905b8154815290600101906020018083116110a857829003601f168201915b5050505050908060040180546110da906117be565b80601f0160208091040260200160405190810160405280929190818152602001828054611106906117be565b80156111535780601f1061112857610100808354040283529160200191611153565b820191906000526020600020905b81548152906001019060200180831161113657829003601f168201915b5050505050905085565b60008181526020818152604091829020805483518184028101840190945280845260609392830182828015610b145760200282019190600052602060002090815481526020019060010190808311610b005750505050509050919050565b6000805b835481101561121357828482815481106111e957634e487b7160e01b600052603260045260246000fd5b90600052602060002001541415611201579050610a5e565b8061120b816117f9565b9150506111bf565b5060405162461bcd60e51b815260206004820152601260248201527110db185a5b481251081b9bdd08199bdd5b9960721b6044820152606401610668565b6000805b83548110156112a9578284828154811061127f57634e487b7160e01b600052603260045260246000fd5b90600052602060002001541415611297579050610a5e565b806112a1816117f9565b915050611255565b5060405162461bcd60e51b8152602060048201526011602482015270141d5c9c1bdcd9481b9bdd08199bdd5b99607a1b6044820152606401610668565b6000805b835481101561133e578284828154811061131457634e487b7160e01b600052603260045260246000fd5b9060005260206000200154141561132c579050610a5e565b80611336816117f9565b9150506112ea565b5060405162461bcd60e51b815260206004820152600d60248201526c12d95e481b9bdd08199bdd5b99609a1b6044820152606401610668565b508054611383906117be565b6000825580601f1061139557506113b3565b601f0160209004906000526020600020908101906113b3919061143a565b50565b8280546113c2906117be565b90600052602060002090601f0160209004810192826113e4576000855561142a565b82601f106113fd57805160ff191683800117855561142a565b8280016001018555821561142a579182015b8281111561142a57825182559160200191906001019061140f565b5061143692915061143a565b5090565b5b80821115611436576000815560010161143b565b600082601f83011261145f578081fd5b813567ffffffffffffffff8082111561147a5761147a61182a565b604051601f8301601f19908116603f011681019082821181831017156114a2576114a261182a565b816040528381528660208588010111156114ba578485fd5b8360208701602083013792830160200193909352509392505050565b6000602082840312156114e7578081fd5b5035919050565b60008060408385031215611500578081fd5b50508035926020909101359150565b60008060008060008060c08789031215611527578182fd5b863595506020870135945060408701356001600160a01b038116811461154b578283fd5b9350606087013567ffffffffffffffff80821115611567578384fd5b6115738a838b0161144f565b94506080890135915080821115611588578384fd5b6115948a838b0161144f565b935060a08901359150808211156115a9578283fd5b506115b689828a0161144f565b9150509295509295509295565b6000806000606084860312156115d7578283fd5b505081359360208301359350604090920135919050565b60008060408385031215611500578182fd5b6000815180845260208085019450808401835b8381101561162f57815187529582019590820190600101611613565b509495945050505050565b60008151808452815b8181101561165f57602081850181015186830182015201611643565b818111156116705782602083870101525b50601f01601f19169290920160200192915050565b6020808252825182820181905260009190848201906040850190845b818110156116bd578351835292840192918401916001016116a1565b50909695505050505050565b6000602082526116dc6020830184611600565b9392505050565b6000606082526116f66060830186611600565b60208301949094525060400152919050565b60006060825261171b606083018661163a565b828103602084015261172d818661163a565b90508281036040840152611741818561163a565b9695505050505050565b8581526001600160a01b038516602082015260a0604082018190526000906117759083018661163a565b8281036060840152611787818661163a565b9050828103608084015261179b818561163a565b98975050505050505050565b6000828210156117b9576117b9611814565b500390565b6002810460018216806117d257607f821691505b602082108114156117f357634e487b7160e01b600052602260045260246000fd5b50919050565b600060001982141561180d5761180d611814565b5060010190565b634e487b7160e01b600052601160045260246000fd5b634e487b7160e01b600052604160045260246000fdfea26469706673582212204f47123df15981bd42f4f5fb25a71986ac5eec3feb3dc589f0acc2c519e5f39b64736f6c63430008020033a26469706673582212200319d20d24321837b9cd1e9a69267d7a84dd612e38f3726ec95e075b47e34d5064736f6c63430008020033",
  "immutableReferences": {},
  "source": "// SPDX-License-Identifier: MIT\r\npragma solidity ^0.8.0;\r\n\r\nimport \"@openzeppelin/contracts/access/Ownable.sol\";\r\nimport \"./identity/Identity.sol\";\r\n\r\ncontract IdentityProvider is Ownable {\r\n    mapping(address => address) public userIdentities;\r\n    mapping(address => bool) public userVerified;\r\n    mapping(address => bool) public trustedAuthorities; // Whitelisted authorities\r\n    mapping(address => bool) public trustedServices; // Whitelisted services\r\n\r\n    uint256 public totalAuthorities; // Counter for trusted authorities\r\n    uint256 public totalServices; // Counter for trusted services\r\n\r\n    event UserRegistered(address indexed user, address identity);\r\n    event ClaimIssued(address indexed user, address indexed issuer);\r\n    event UserAuthenticated(address indexed user, bool success);\r\n\r\n    event Debug(bytes32 dataHash, bytes32 ethSignedMessageHash, address recoveredAddress, bool isValidSignature);\r\n    event DebugSignature(bytes32 r, bytes32 s, uint8 v, address recoveredAddress);\r\n\r\n    constructor(address[] memory initialAuthorities, address[] memory initialServices) {\r\n        for (uint256 i = 0; i < initialAuthorities.length; i++) {\r\n            trustedAuthorities[initialAuthorities[i]] = true;  // Set up initial trusted authorities\r\n            totalAuthorities++;\r\n        }\r\n\r\n        for (uint256 i = 0; i < initialServices.length; i++) {\r\n            trustedServices[initialServices[i]] = true;  // Set up initial trusted services\r\n            totalServices++;\r\n        }\r\n\r\n        // Owner is the contract deployer\r\n        transferOwnership(msg.sender);\r\n    }\r\n\r\n    // Modifier to restrict access to trusted authorities\r\n    modifier onlyTrustedAuthority() {\r\n        require(isTrustedAuthority(msg.sender), \"Only trusted authorities can issue claims\");\r\n        _;\r\n    }\r\n\r\n    // Check trusted authority\r\n    function isTrustedAuthority(address authority) public view returns (bool){\r\n        return trustedAuthorities[authority];\r\n    }\r\n\r\n    // Check trusted service\r\n    function isTrustedService(address service) public view returns (bool){\r\n        return trustedServices[service];\r\n    }\r\n\r\n    // Add a new trusted authority\r\n    function addTrustedAuthority(address authority) public onlyOwner {\r\n        // Ideally, add access control here, e.g., only the contract owner can call this.\r\n        require(!trustedAuthorities[authority], \"Already a trusted authority\");\r\n        trustedAuthorities[authority] = true;\r\n        totalAuthorities++;\r\n    }\r\n\r\n    // Add a new trusted services\r\n    function addTrustedService(address service) public onlyOwner {\r\n        // Ideally, add access control here, e.g., only the contract owner can call this.\r\n        require(!trustedServices[service], \"Already a trusted service\");\r\n        trustedAuthorities[service] = true;\r\n        totalServices++;\r\n    }\r\n\r\n    // Add a new trusted services\r\n    function removeTrustedService(address service) public onlyOwner {\r\n        // Ideally, add access control here, e.g., only the contract owner can call this.\r\n        require(trustedServices[service], \"Not a trusted service\");\r\n        trustedAuthorities[service] = false;\r\n        totalServices--;\r\n    }\r\n\r\n    // Remove a trusted authority\r\n    function removeTrustedAuthority(address authority) public onlyOwner {\r\n        // Ideally, add access control here.\r\n        require(trustedAuthorities[authority], \"Not a trusted authority\");\r\n        trustedAuthorities[authority] = false;\r\n        totalAuthorities--;\r\n    }\r\n\r\n    // Function to check if a user is verified based on their claim\r\n    function isUserVerified(address user) public view returns (bool) {\r\n        return userVerified[user];\r\n    }\r\n\r\n    // Function to register a user by creating their Identity contract and issuing a claim\r\n    function register(address user, bytes32 claimId, bytes memory signature, string memory claimData, string memory url) public onlyTrustedAuthority returns (bool){\r\n        // Ensure the user doesn't already have an identity contract\r\n        require(userIdentities[user] == address(0), \"User is already registered\");\r\n\r\n        // Deploy a new Identity contract for the user\r\n        Identity userIdentity = new Identity(user);\r\n\r\n        // Store the user's identity contract address\r\n        userIdentities[user] = address(userIdentity);\r\n\r\n        userIdentity.addClaim(claimId, 1, msg.sender, signature, abi.encodePacked(claimData), url);\r\n\r\n        emit UserRegistered(user, address(userIdentity));\r\n        emit ClaimIssued(user, msg.sender);\r\n\r\n        return userIdentities[user] != address(0);\r\n    }\r\n\r\n    // Function to check if a user is registered and has an Identity contract\r\n    function isRegistered(address user) public view returns (bool) {\r\n        return userIdentities[user] != address(0);\r\n    }\r\n\r\n    function authenticate(address user, bytes32 claimId) public returns (bool) {\r\n        require(userIdentities[user] != address(0), \"User not registered\");\r\n\r\n        address identityAddress = userIdentities[user];\r\n        Identity userIdentity = Identity(identityAddress);\r\n\r\n        // Fetch the claim from the user's identity contract\r\n        (\r\n            , // uint256 claimType,\r\n            address issuer,\r\n            bytes memory signature,\r\n            bytes memory data,\r\n              // string memory uri\r\n        ) = userIdentity.getClaim(claimId);\r\n\r\n        // Verify that the claim issuer is a trusted authority\r\n        require(trustedAuthorities[issuer], \"Issuer is not a trusted authority\");\r\n\r\n        // Verify the signature\r\n        bytes32 dataHash =  keccak256(abi.encodePacked(data)); // Hash the claim data to get the message hash\r\n        bytes32 ethSignedMessageHash = getEthSignedMessageHash(dataHash);  // Add the Ethereum prefix !!!!!\r\n\r\n        // For now, this is giving me a super headache\r\n        // bool isValid = verifySignature(issuer, dataHash, signature);\r\n        bool isValid = trustedAuthorities[issuer];\r\n\r\n        require(isValid, \"Signature is invalid\");\r\n\r\n        emit Debug(dataHash, ethSignedMessageHash, issuer, isValid);\r\n\r\n        userVerified[user] = isValid;  // Mark the user as verified\r\n\r\n        emit UserAuthenticated(user, isValid);\r\n        return isValid;\r\n    }\r\n\r\n    function getEthSignedMessageHash(bytes32 _messageHash) internal pure returns (bytes32) {\r\n        // Damn Ethereum I lost 2 days for this\r\n        // Prefix the message with \"\\x19Ethereum Signed Message:\\n32\" and hash it again\r\n        return keccak256(abi.encodePacked(\"\\x19Ethereum Signed Message:\\n32\", _messageHash));\r\n    }\r\n\r\n    // Signature verification using ecrecover\r\n    function verifySignature(address issuer, bytes32 dataHash, bytes memory signature) internal /*pure*/ returns (bool) {\r\n        require(signature.length == 65, \"Invalid signature length\");\r\n\r\n        bytes32 r;\r\n        bytes32 s;\r\n        uint8 v;\r\n\r\n        // Split the signature into its components: r, s, and v\r\n        assembly {\r\n            r := mload(add(signature, 32))\r\n            s := mload(add(signature, 64))\r\n            v := byte(0, mload(add(signature, 96)))\r\n        }\r\n\r\n        // Adjust v if necessary\r\n        if (v < 27) {\r\n            v += 27;\r\n        }\r\n\r\n        // Verify that v is in the correct range\r\n        require(v == 27 || v == 28, \"Invalid signature version\");\r\n\r\n        // Recover the signer address from the signature\r\n        address recoveredAddress = ecrecover(dataHash, v, r, s);\r\n\r\n        emit DebugSignature(r, s, v, recoveredAddress);\r\n\r\n        return (recoveredAddress == issuer);  // Return true if the recovered address matches the issuer\r\n    }\r\n}",
  "sourcePath": "/compiler/contracts/implementation/IdentityProvider.sol",
  "compiler": {
    "name": "solc",
    "version": "0.8.2+commit.661d1103.Emscripten.clang"
  },
  "schemaVersion": "3.4.16",
  "updatedAt": "2024-11-19T23:23:57.710Z",
  "networkType": "ethereum",
  "devdoc": {
    "kind": "dev",
    "methods": {
      "owner()": {
        "details": "Returns the address of the current owner."
      },
      "renounceOwnership()": {
        "details": "Leaves the contract without owner. It will not be possible to call `onlyOwner` functions. Can only be called by the current owner. NOTE: Renouncing ownership will leave the contract without an owner, thereby disabling any functionality that is only available to the owner."
      },
      "transferOwnership(address)": {
        "details": "Transfers ownership of the contract to a new account (`newOwner`). Can only be called by the current owner."
      }
    },
    "version": 1
  },
  "userdoc": {
    "kind": "user",
    "methods": {},
    "version": 1
  }
}