{
  "contractName": "ERC725",
  "abi": [
    {
      "anonymous": false,
      "inputs": [
        {
          "indexed": true,
          "internalType": "bytes32",
          "name": "key",
          "type": "bytes32"
        },
        {
          "indexed": true,
          "internalType": "uint256",
          "name": "purpose",
          "type": "uint256"
        },
        {
          "indexed": true,
          "internalType": "uint256",
          "name": "keyType",
          "type": "uint256"
        }
      ],
      "name": "KeyAdded",
      "type": "event"
    },
    {
      "anonymous": false,
      "inputs": [
        {
          "indexed": true,
          "internalType": "bytes32",
          "name": "key",
          "type": "bytes32"
        },
        {
          "indexed": true,
          "internalType": "uint256",
          "name": "purpose",
          "type": "uint256"
        },
        {
          "indexed": true,
          "internalType": "uint256",
          "name": "keyType",
          "type": "uint256"
        }
      ],
      "name": "KeyRemoved",
      "type": "event"
    },
    {
      "inputs": [],
      "name": "ACTION_KEY",
      "outputs": [
        {
          "internalType": "uint256",
          "name": "",
          "type": "uint256"
        }
      ],
      "stateMutability": "view",
      "type": "function",
      "constant": true
    },
    {
      "inputs": [],
      "name": "CLAIM_SIGNER_KEY",
      "outputs": [
        {
          "internalType": "uint256",
          "name": "",
          "type": "uint256"
        }
      ],
      "stateMutability": "view",
      "type": "function",
      "constant": true
    },
    {
      "inputs": [],
      "name": "ENCRYPTION_KEY",
      "outputs": [
        {
          "internalType": "uint256",
          "name": "",
          "type": "uint256"
        }
      ],
      "stateMutability": "view",
      "type": "function",
      "constant": true
    },
    {
      "inputs": [],
      "name": "MANAGEMENT_KEY",
      "outputs": [
        {
          "internalType": "uint256",
          "name": "",
          "type": "uint256"
        }
      ],
      "stateMutability": "view",
      "type": "function",
      "constant": true
    },
    {
      "inputs": [
        {
          "internalType": "bytes32",
          "name": "",
          "type": "bytes32"
        }
      ],
      "name": "keys",
      "outputs": [
        {
          "internalType": "uint256",
          "name": "keyType",
          "type": "uint256"
        },
        {
          "internalType": "bytes32",
          "name": "key",
          "type": "bytes32"
        }
      ],
      "stateMutability": "view",
      "type": "function",
      "constant": true
    },
    {
      "inputs": [
        {
          "internalType": "uint256",
          "name": "",
          "type": "uint256"
        },
        {
          "internalType": "uint256",
          "name": "",
          "type": "uint256"
        }
      ],
      "name": "keysByPurpose",
      "outputs": [
        {
          "internalType": "bytes32",
          "name": "",
          "type": "bytes32"
        }
      ],
      "stateMutability": "view",
      "type": "function",
      "constant": true
    },
    {
      "inputs": [
        {
          "internalType": "bytes32",
          "name": "key",
          "type": "bytes32"
        },
        {
          "internalType": "uint256",
          "name": "purpose",
          "type": "uint256"
        }
      ],
      "name": "keyHasPurpose",
      "outputs": [
        {
          "internalType": "bool",
          "name": "",
          "type": "bool"
        }
      ],
      "stateMutability": "view",
      "type": "function",
      "constant": true
    },
    {
      "inputs": [
        {
          "internalType": "bytes32",
          "name": "key",
          "type": "bytes32"
        }
      ],
      "name": "keyCanSignClaim",
      "outputs": [
        {
          "internalType": "bool",
          "name": "",
          "type": "bool"
        }
      ],
      "stateMutability": "view",
      "type": "function",
      "constant": true
    },
    {
      "inputs": [
        {
          "internalType": "bytes32",
          "name": "_key",
          "type": "bytes32"
        }
      ],
      "name": "getKey",
      "outputs": [
        {
          "internalType": "uint256[]",
          "name": "purposes",
          "type": "uint256[]"
        },
        {
          "internalType": "uint256",
          "name": "keyType",
          "type": "uint256"
        },
        {
          "internalType": "bytes32",
          "name": "key",
          "type": "bytes32"
        }
      ],
      "stateMutability": "view",
      "type": "function",
      "constant": true
    },
    {
      "inputs": [
        {
          "internalType": "bytes32",
          "name": "_key",
          "type": "bytes32"
        }
      ],
      "name": "getKeyPurposes",
      "outputs": [
        {
          "internalType": "uint256[]",
          "name": "purposes",
          "type": "uint256[]"
        }
      ],
      "stateMutability": "view",
      "type": "function",
      "constant": true
    },
    {
      "inputs": [
        {
          "internalType": "uint256",
          "name": "_purpose",
          "type": "uint256"
        }
      ],
      "name": "getKeysByPurpose",
      "outputs": [
        {
          "internalType": "bytes32[]",
          "name": "_keys",
          "type": "bytes32[]"
        }
      ],
      "stateMutability": "view",
      "type": "function",
      "constant": true
    },
    {
      "inputs": [
        {
          "internalType": "bytes32",
          "name": "_key",
          "type": "bytes32"
        },
        {
          "internalType": "uint256",
          "name": "_purpose",
          "type": "uint256"
        },
        {
          "internalType": "uint256",
          "name": "_keyType",
          "type": "uint256"
        }
      ],
      "name": "addKey",
      "outputs": [
        {
          "internalType": "bool",
          "name": "success",
          "type": "bool"
        }
      ],
      "stateMutability": "nonpayable",
      "type": "function"
    },
    {
      "inputs": [
        {
          "internalType": "bytes32",
          "name": "_key",
          "type": "bytes32"
        },
        {
          "internalType": "uint256",
          "name": "_purpose",
          "type": "uint256"
        }
      ],
      "name": "removeKey",
      "outputs": [
        {
          "internalType": "bool",
          "name": "success",
          "type": "bool"
        }
      ],
      "stateMutability": "nonpayable",
      "type": "function"
    }
  ],
  "bytecode": "0x608060405234801561001057600080fd5b50610a89806100206000396000f3fe608060405234801561001057600080fd5b50600436106100cf5760003560e01c806375e5598c1161008c578063c670218711610066578063c67021871461019d578063d202158d146101a5578063dde5b7a1146101b8578063fb307b34146101f7576100cf565b806375e5598c1461016d5780639010f726146101755780639e140cc814610195576100cf565b8063058b316c146100d457806312aaac70146100ef5780631d3812401461011157806353d413c5146101345780636a19c0731461014757806370e6fd371461015a575b600080fd5b6100dc600181565b6040519081526020015b60405180910390f35b6101026100fd3660046108d8565b610217565b6040516100e6939291906109e6565b61012461011f366004610911565b6102b3565b60405190151581526020016100e6565b6101246101423660046108f0565b610356565b6100dc61015536600461093c565b6105f9565b6101246101683660046108d8565b61062a565b6100dc600281565b6101886101833660046108d8565b610637565b6040516100e69190610988565b6100dc600481565b6100dc600381565b6101246101b33660046108f0565b610699565b6101e26101c63660046108d8565b6000602081905290815260409020600181015460029091015482565b604080519283526020830191909152016100e6565b61020a6102053660046108d8565b610754565b6040516100e691906109cc565b600081815260208181526040808320815181546080948102820185019093526060818101848152909594859485949284929091849184018282801561027b57602002820191906000526020600020905b815481526020019060010190808311610267575b505050918352505060018201546020808301919091526002909201546040918201528251918301519201519097919650945092505050565b6000838152602081905260408120600201546102e5576000848152602081905260409020600281018590556001018290555b60008481526020818152604080832080546001818101835591855283852001879055868452808352818420805491820181558452918320909101869055518391859187917f480000bb1edad8ca1470381cc334b1917fbd51c6531f3a623ea8e0ec7e38a6e991a45060019392505050565b6000828152602081905260408120600201546103ae5760405162461bcd60e51b815260206004820152601260248201527112d95e48191bd95cc81b9bdd08195e1a5cdd60721b60448201526064015b60405180910390fd5b60008381526020819052604081206103c690846107b2565b60008581526020819052604090205490915081106104265760405162461bcd60e51b815260206004820152601960248201527f507572706f7365206e6f7420666f756e6420666f72206b65790000000000000060448201526064016103a5565b6000848152602081905260409020805461044290600190610a0b565b8154811061046057634e487b7160e01b600052603260045260246000fd5b9060005260206000200154600080868152602001908152602001600020600001828154811061049f57634e487b7160e01b600052603260045260246000fd5b600091825260208083209091019290925585815290819052604090208054806104d857634e487b7160e01b600052603160045260246000fd5b6000828152602080822083016000199081018390559092019092558482526001905260408120906105098287610847565b8254909150829061051c90600190610a0b565b8154811061053a57634e487b7160e01b600052603260045260246000fd5b906000526020600020015482828154811061056557634e487b7160e01b600052603260045260246000fd5b90600052602060002001819055508180548061059157634e487b7160e01b600052603160045260246000fd5b600190038181906000526020600020016000905590556000808781526020019081526020016000206001015485877f585a4aef50f8267a92b32412b331b20f7f8b96f2245b253b9cc50dcc621d339760405160405180910390a4600193505050505b92915050565b6001602052816000526040600020818154811061061557600080fd5b90600052602060002001600091509150505481565b60006105f3826003610699565b60008181526001602090815260409182902080548351818402810184019094528084526060939283018282801561068d57602002820191906000526020600020905b815481526020019060010190808311610679575b50505050509050919050565b600082815260208181526040808320805482518185028101850190935280835284938301828280156106ea57602002820191906000526020600020905b8154815260200190600101908083116106d6575b5050505050905060005b8151811015610749578382828151811061071e57634e487b7160e01b600052603260045260246000fd5b60200260200101511415610737576001925050506105f3565b8061074181610a22565b9150506106f4565b506000949350505050565b6000818152602081815260409182902080548351818402810184019094528084526060939283018282801561068d57602002820191906000526020600020908154815260200190600101908083116106795750505050509050919050565b6000805b835481101561080a57828482815481106107e057634e487b7160e01b600052603260045260246000fd5b906000526020600020015414156107f85790506105f3565b8061080281610a22565b9150506107b6565b5060405162461bcd60e51b8152602060048201526011602482015270141d5c9c1bdcd9481b9bdd08199bdd5b99607a1b60448201526064016103a5565b6000805b835481101561089f578284828154811061087557634e487b7160e01b600052603260045260246000fd5b9060005260206000200154141561088d5790506105f3565b8061089781610a22565b91505061084b565b5060405162461bcd60e51b815260206004820152600d60248201526c12d95e481b9bdd08199bdd5b99609a1b60448201526064016103a5565b6000602082840312156108e9578081fd5b5035919050565b60008060408385031215610902578081fd5b50508035926020909101359150565b600080600060608486031215610925578081fd5b505081359360208301359350604090920135919050565b60008060408385031215610902578182fd5b6000815180845260208085019450808401835b8381101561097d57815187529582019590820190600101610961565b509495945050505050565b6020808252825182820181905260009190848201906040850190845b818110156109c0578351835292840192918401916001016109a4565b50909695505050505050565b6000602082526109df602083018461094e565b9392505050565b6000606082526109f9606083018661094e565b60208301949094525060400152919050565b600082821015610a1d57610a1d610a3d565b500390565b6000600019821415610a3657610a36610a3d565b5060010190565b634e487b7160e01b600052601160045260246000fdfea2646970667358221220aa31e551fc370e82b36ca85e8bba7a8c7d4a417dedab82c4b9dfe8f6aa7bff1364736f6c63430008020033",
  "immutableReferences": {},
  "source": "// SPDX-License-Identifier: MIT\r\npragma solidity ^0.8.0;\r\n\r\n//import \"@openzeppelin/contracts/access/Ownable.sol\";\r\n\r\ncontract ERC725 {\r\n    uint256 public constant MANAGEMENT_KEY = 1;\r\n    uint256 public constant ACTION_KEY = 2;\r\n    uint256 public constant CLAIM_SIGNER_KEY = 3;\r\n    uint256 public constant ENCRYPTION_KEY = 4;\r\n\r\n    struct Key {\r\n        uint256[] purposes;\r\n        uint256 keyType;\r\n        bytes32 key;\r\n    }\r\n\r\n    mapping(bytes32 => Key) public keys;\r\n    mapping(uint256 => bytes32[]) public keysByPurpose;\r\n\r\n    event KeyAdded(bytes32 indexed key, uint256 indexed purpose, uint256 indexed keyType);\r\n    event KeyRemoved(bytes32 indexed key, uint256 indexed purpose, uint256 indexed keyType);\r\n\r\n    // Check if a key exists and is of a specific type\r\n    function keyHasPurpose(bytes32 key, uint256 purpose) public view returns (bool) {\r\n        uint256[] memory keyPurposes = keys[key].purposes;  // Get the array of purposes for the key\r\n        for (uint i = 0; i < keyPurposes.length; i++) {\r\n            if (keyPurposes[i] == purpose) {\r\n                return true;  // Return true if the purpose matches\r\n            }\r\n        }\r\n        return false;  // Return false if no matching purpose is found\r\n    }\r\n\r\n    function keyCanSignClaim(bytes32 key) public view returns (bool) {\r\n        return keyHasPurpose(key, ERC725.CLAIM_SIGNER_KEY);\r\n    }\r\n\r\n    function getKey(bytes32 _key) public view returns (uint256[] memory purposes, uint256 keyType, bytes32 key) {\r\n        Key memory keyData = keys[_key];\r\n        return (keyData.purposes, keyData.keyType, keyData.key);\r\n    }\r\n\r\n    function getKeyPurposes(bytes32 _key) public view returns (uint256[] memory purposes) {\r\n        return keys[_key].purposes;\r\n    }\r\n\r\n    function getKeysByPurpose(uint256 _purpose) public view returns (bytes32[] memory _keys) {\r\n        return keysByPurpose[_purpose];\r\n    }\r\n\r\n    function addKey(bytes32 _key, uint256 _purpose, uint256 _keyType) public returns (bool success) {\r\n        if (keys[_key].key == 0) {\r\n            keys[_key].key = _key;\r\n            keys[_key].keyType = _keyType;\r\n        }\r\n\r\n        keys[_key].purposes.push(_purpose);\r\n        keysByPurpose[_purpose].push(_key);\r\n\r\n        emit KeyAdded(_key, _purpose, _keyType);\r\n        return true;\r\n    }\r\n\r\n    function removeKey(bytes32 _key, uint256 _purpose) public returns (bool success) {\r\n        require(keys[_key].key != 0, \"Key does not exist\");\r\n\r\n        // Remove purpose from key\r\n        uint256 purposeIndex = findPurposeIndex(keys[_key].purposes, _purpose);\r\n        require(purposeIndex < keys[_key].purposes.length, \"Purpose not found for key\");\r\n\r\n        keys[_key].purposes[purposeIndex] = keys[_key].purposes[keys[_key].purposes.length - 1];\r\n        keys[_key].purposes.pop();\r\n\r\n        // Remove key from keysByPurpose\r\n        bytes32[] storage purposeKeys = keysByPurpose[_purpose];\r\n        uint256 keyIndex = findKeyIndex(purposeKeys, _key);\r\n        purposeKeys[keyIndex] = purposeKeys[purposeKeys.length - 1];\r\n        purposeKeys.pop();\r\n\r\n        emit KeyRemoved(_key, _purpose, keys[_key].keyType);\r\n        return true;\r\n    }\r\n\r\n    function findPurposeIndex(uint256[] storage purposes, uint256 purpose) internal view returns (uint256) {\r\n        for (uint256 i = 0; i < purposes.length; i++) {\r\n            if (purposes[i] == purpose) {\r\n                return i;\r\n            }\r\n        }\r\n        revert(\"Purpose not found\");\r\n    }\r\n\r\n    function findKeyIndex(bytes32[] storage keyList, bytes32 key) internal view returns (uint256) {\r\n        for (uint256 i = 0; i < keyList.length; i++) {\r\n            if (keyList[i] == key) {\r\n                return i;\r\n            }\r\n        }\r\n        revert(\"Key not found\");\r\n    }\r\n\r\n}\r\n",
  "sourcePath": "/compiler/contracts/implementation/identity/ERC725.sol",
  "compiler": {
    "name": "solc",
    "version": "0.8.2+commit.661d1103.Emscripten.clang"
  },
  "schemaVersion": "3.4.16",
  "updatedAt": "2024-11-20T09:17:17.233Z",
  "networkType": "ethereum",
  "devdoc": {
    "kind": "dev",
    "methods": {},
    "version": 1
  },
  "userdoc": {
    "kind": "user",
    "methods": {},
    "version": 1
  }
}