{
  "contractName": "Identity",
  "abi": [
    {
      "inputs": [
        {
          "internalType": "address",
          "name": "_initialManagementKey",
          "type": "address"
        }
      ],
      "stateMutability": "nonpayable",
      "type": "constructor"
    },
    {
      "anonymous": false,
      "inputs": [
        {
          "indexed": true,
          "internalType": "bytes32",
          "name": "claimId",
          "type": "bytes32"
        },
        {
          "indexed": true,
          "internalType": "uint256",
          "name": "claimType",
          "type": "uint256"
        },
        {
          "indexed": true,
          "internalType": "address",
          "name": "issuer",
          "type": "address"
        },
        {
          "indexed": false,
          "internalType": "bytes",
          "name": "signature",
          "type": "bytes"
        },
        {
          "indexed": false,
          "internalType": "bytes",
          "name": "data",
          "type": "bytes"
        },
        {
          "indexed": false,
          "internalType": "string",
          "name": "uri",
          "type": "string"
        }
      ],
      "name": "ClaimAdded",
      "type": "event"
    },
    {
      "anonymous": false,
      "inputs": [
        {
          "indexed": true,
          "internalType": "bytes32",
          "name": "claimId",
          "type": "bytes32"
        },
        {
          "indexed": true,
          "internalType": "uint256",
          "name": "claimType",
          "type": "uint256"
        },
        {
          "indexed": true,
          "internalType": "address",
          "name": "issuer",
          "type": "address"
        },
        {
          "indexed": false,
          "internalType": "bytes",
          "name": "signature",
          "type": "bytes"
        },
        {
          "indexed": false,
          "internalType": "bytes",
          "name": "data",
          "type": "bytes"
        },
        {
          "indexed": false,
          "internalType": "string",
          "name": "uri",
          "type": "string"
        }
      ],
      "name": "ClaimChanged",
      "type": "event"
    },
    {
      "anonymous": false,
      "inputs": [
        {
          "indexed": true,
          "internalType": "bytes32",
          "name": "claimId",
          "type": "bytes32"
        },
        {
          "indexed": true,
          "internalType": "uint256",
          "name": "claimType",
          "type": "uint256"
        },
        {
          "indexed": true,
          "internalType": "address",
          "name": "issuer",
          "type": "address"
        }
      ],
      "name": "ClaimRemoved",
      "type": "event"
    },
    {
      "anonymous": false,
      "inputs": [
        {
          "indexed": true,
          "internalType": "bytes32",
          "name": "key",
          "type": "bytes32"
        },
        {
          "indexed": true,
          "internalType": "uint256",
          "name": "purpose",
          "type": "uint256"
        },
        {
          "indexed": true,
          "internalType": "uint256",
          "name": "keyType",
          "type": "uint256"
        }
      ],
      "name": "KeyAdded",
      "type": "event"
    },
    {
      "anonymous": false,
      "inputs": [
        {
          "indexed": true,
          "internalType": "bytes32",
          "name": "key",
          "type": "bytes32"
        },
        {
          "indexed": true,
          "internalType": "uint256",
          "name": "purpose",
          "type": "uint256"
        },
        {
          "indexed": true,
          "internalType": "uint256",
          "name": "keyType",
          "type": "uint256"
        }
      ],
      "name": "KeyRemoved",
      "type": "event"
    },
    {
      "inputs": [],
      "name": "ACTION_KEY",
      "outputs": [
        {
          "internalType": "uint256",
          "name": "",
          "type": "uint256"
        }
      ],
      "stateMutability": "view",
      "type": "function",
      "constant": true
    },
    {
      "inputs": [],
      "name": "CLAIM_SIGNER_KEY",
      "outputs": [
        {
          "internalType": "uint256",
          "name": "",
          "type": "uint256"
        }
      ],
      "stateMutability": "view",
      "type": "function",
      "constant": true
    },
    {
      "inputs": [],
      "name": "ECDSA_KEY",
      "outputs": [
        {
          "internalType": "uint256",
          "name": "",
          "type": "uint256"
        }
      ],
      "stateMutability": "view",
      "type": "function",
      "constant": true
    },
    {
      "inputs": [],
      "name": "ENCRYPTION_KEY",
      "outputs": [
        {
          "internalType": "uint256",
          "name": "",
          "type": "uint256"
        }
      ],
      "stateMutability": "view",
      "type": "function",
      "constant": true
    },
    {
      "inputs": [],
      "name": "MANAGEMENT_KEY",
      "outputs": [
        {
          "internalType": "uint256",
          "name": "",
          "type": "uint256"
        }
      ],
      "stateMutability": "view",
      "type": "function",
      "constant": true
    },
    {
      "inputs": [
        {
          "internalType": "bytes32",
          "name": "_claimId",
          "type": "bytes32"
        },
        {
          "internalType": "uint256",
          "name": "_claimType",
          "type": "uint256"
        },
        {
          "internalType": "address",
          "name": "_issuer",
          "type": "address"
        },
        {
          "internalType": "bytes",
          "name": "_signature",
          "type": "bytes"
        },
        {
          "internalType": "bytes",
          "name": "_data",
          "type": "bytes"
        },
        {
          "internalType": "string",
          "name": "_uri",
          "type": "string"
        }
      ],
      "name": "addClaim",
      "outputs": [
        {
          "internalType": "bool",
          "name": "success",
          "type": "bool"
        }
      ],
      "stateMutability": "nonpayable",
      "type": "function"
    },
    {
      "inputs": [
        {
          "internalType": "bytes32",
          "name": "_key",
          "type": "bytes32"
        },
        {
          "internalType": "uint256",
          "name": "_purpose",
          "type": "uint256"
        },
        {
          "internalType": "uint256",
          "name": "_keyType",
          "type": "uint256"
        }
      ],
      "name": "addKey",
      "outputs": [
        {
          "internalType": "bool",
          "name": "success",
          "type": "bool"
        }
      ],
      "stateMutability": "nonpayable",
      "type": "function"
    },
    {
      "inputs": [
        {
          "internalType": "bytes32",
          "name": "",
          "type": "bytes32"
        }
      ],
      "name": "claims",
      "outputs": [
        {
          "internalType": "uint256",
          "name": "claimType",
          "type": "uint256"
        },
        {
          "internalType": "address",
          "name": "issuer",
          "type": "address"
        },
        {
          "internalType": "bytes",
          "name": "signature",
          "type": "bytes"
        },
        {
          "internalType": "bytes",
          "name": "data",
          "type": "bytes"
        },
        {
          "internalType": "string",
          "name": "uri",
          "type": "string"
        }
      ],
      "stateMutability": "view",
      "type": "function",
      "constant": true
    },
    {
      "inputs": [
        {
          "internalType": "uint256",
          "name": "",
          "type": "uint256"
        },
        {
          "internalType": "uint256",
          "name": "",
          "type": "uint256"
        }
      ],
      "name": "claimsByType",
      "outputs": [
        {
          "internalType": "bytes32",
          "name": "",
          "type": "bytes32"
        }
      ],
      "stateMutability": "view",
      "type": "function",
      "constant": true
    },
    {
      "inputs": [
        {
          "internalType": "bytes32",
          "name": "_claimId",
          "type": "bytes32"
        }
      ],
      "name": "getClaim",
      "outputs": [
        {
          "internalType": "uint256",
          "name": "claimType",
          "type": "uint256"
        },
        {
          "internalType": "address",
          "name": "issuer",
          "type": "address"
        },
        {
          "internalType": "bytes",
          "name": "signature",
          "type": "bytes"
        },
        {
          "internalType": "bytes",
          "name": "data",
          "type": "bytes"
        },
        {
          "internalType": "string",
          "name": "uri",
          "type": "string"
        }
      ],
      "stateMutability": "view",
      "type": "function",
      "constant": true
    },
    {
      "inputs": [
        {
          "internalType": "uint256",
          "name": "_claimType",
          "type": "uint256"
        }
      ],
      "name": "getClaimsByType",
      "outputs": [
        {
          "internalType": "bytes32[]",
          "name": "_claimIds",
          "type": "bytes32[]"
        }
      ],
      "stateMutability": "view",
      "type": "function",
      "constant": true
    },
    {
      "inputs": [
        {
          "internalType": "bytes32",
          "name": "_key",
          "type": "bytes32"
        }
      ],
      "name": "getKey",
      "outputs": [
        {
          "internalType": "uint256[]",
          "name": "purposes",
          "type": "uint256[]"
        },
        {
          "internalType": "uint256",
          "name": "keyType",
          "type": "uint256"
        },
        {
          "internalType": "bytes32",
          "name": "key",
          "type": "bytes32"
        }
      ],
      "stateMutability": "view",
      "type": "function",
      "constant": true
    },
    {
      "inputs": [
        {
          "internalType": "bytes32",
          "name": "_key",
          "type": "bytes32"
        }
      ],
      "name": "getKeyPurposes",
      "outputs": [
        {
          "internalType": "uint256[]",
          "name": "purposes",
          "type": "uint256[]"
        }
      ],
      "stateMutability": "view",
      "type": "function",
      "constant": true
    },
    {
      "inputs": [
        {
          "internalType": "uint256",
          "name": "_purpose",
          "type": "uint256"
        }
      ],
      "name": "getKeysByPurpose",
      "outputs": [
        {
          "internalType": "bytes32[]",
          "name": "_keys",
          "type": "bytes32[]"
        }
      ],
      "stateMutability": "view",
      "type": "function",
      "constant": true
    },
    {
      "inputs": [
        {
          "internalType": "bytes32",
          "name": "key",
          "type": "bytes32"
        }
      ],
      "name": "keyCanSignClaim",
      "outputs": [
        {
          "internalType": "bool",
          "name": "",
          "type": "bool"
        }
      ],
      "stateMutability": "view",
      "type": "function",
      "constant": true
    },
    {
      "inputs": [
        {
          "internalType": "bytes32",
          "name": "key",
          "type": "bytes32"
        },
        {
          "internalType": "uint256",
          "name": "purpose",
          "type": "uint256"
        }
      ],
      "name": "keyHasPurpose",
      "outputs": [
        {
          "internalType": "bool",
          "name": "",
          "type": "bool"
        }
      ],
      "stateMutability": "view",
      "type": "function",
      "constant": true
    },
    {
      "inputs": [
        {
          "internalType": "bytes32",
          "name": "",
          "type": "bytes32"
        }
      ],
      "name": "keys",
      "outputs": [
        {
          "internalType": "uint256",
          "name": "keyType",
          "type": "uint256"
        },
        {
          "internalType": "bytes32",
          "name": "key",
          "type": "bytes32"
        }
      ],
      "stateMutability": "view",
      "type": "function",
      "constant": true
    },
    {
      "inputs": [
        {
          "internalType": "uint256",
          "name": "",
          "type": "uint256"
        },
        {
          "internalType": "uint256",
          "name": "",
          "type": "uint256"
        }
      ],
      "name": "keysByPurpose",
      "outputs": [
        {
          "internalType": "bytes32",
          "name": "",
          "type": "bytes32"
        }
      ],
      "stateMutability": "view",
      "type": "function",
      "constant": true
    },
    {
      "inputs": [
        {
          "internalType": "bytes32",
          "name": "_claimId",
          "type": "bytes32"
        }
      ],
      "name": "removeClaim",
      "outputs": [
        {
          "internalType": "bool",
          "name": "success",
          "type": "bool"
        }
      ],
      "stateMutability": "nonpayable",
      "type": "function"
    },
    {
      "inputs": [
        {
          "internalType": "bytes32",
          "name": "_key",
          "type": "bytes32"
        },
        {
          "internalType": "uint256",
          "name": "_purpose",
          "type": "uint256"
        }
      ],
      "name": "removeKey",
      "outputs": [
        {
          "internalType": "bool",
          "name": "success",
          "type": "bool"
        }
      ],
      "stateMutability": "nonpayable",
      "type": "function"
    }
  ],
  "bytecode": "0x608060405234801561001057600080fd5b50604051620019d1380380620019d18339810160408190526100319161011d565b6040516001600160601b0319606083901b166020820152610073906034016040516020818303038152906040528051906020012060018061007a60201b60201c565b505061014b565b6000838152602081905260408120600201546100ac576000848152602081905260409020600281018590556001018290555b60008481526020818152604080832080546001818101835591855283852001879055868452808352818420805491820181558452918320909101869055518391859187917f480000bb1edad8ca1470381cc334b1917fbd51c6531f3a623ea8e0ec7e38a6e991a45060019392505050565b60006020828403121561012e578081fd5b81516001600160a01b0381168114610144578182fd5b9392505050565b611876806200015b6000396000f3fe608060405234801561001057600080fd5b506004361061012c5760003560e01c80639e140cc8116100ad578063d202158d11610071578063d202158d1461025f578063d7c37e8014610272578063dde5b7a114610285578063eff0f592146102c4578063fb307b34146102d75761012c565b80639e140cc814610218578063ad376eff14610131578063b668437514610220578063c670218714610233578063c9100bcb1461023b5761012c565b80636a19c073116100f45780636a19c073146101b757806370e6fd37146101ca57806375e5598c146101dd5780638928295f146101e55780639010f726146101f85761012c565b8063058b316c1461013157806312aaac701461014c5780631d3812401461016e5780634eee424a1461019157806353d413c5146101a4575b600080fd5b610139600181565b6040519081526020015b60405180910390f35b61015f61015a3660046114d6565b6102f7565b604051610143939291906116e3565b61018161017c3660046115c3565b610393565b6040519015158152602001610143565b61018161019f3660046114d6565b610436565b6101816101b23660046114ee565b6107c6565b6101396101c53660046115ee565b610a64565b6101816101d83660046114d6565b610a95565b610139600281565b6101396101f33660046115ee565b610aa2565b61020b6102063660046114d6565b610abe565b6040516101439190611685565b610139600481565b61018161022e36600461150f565b610b20565b610139600381565b61024e6102493660046114d6565b610c4d565b60405161014395949392919061174b565b61018161026d3660046114ee565b610e70565b61020b6102803660046114d6565b610f2b565b6102af6102933660046114d6565b6000602081905290815260409020600181015460029091015482565b60408051928352602083019190915201610143565b61024e6102d23660046114d6565b610f8b565b6102ea6102e53660046114d6565b61115d565b60405161014391906116c9565b600081815260208181526040808320815181546080948102820185019093526060818101848152909594859485949284929091849184018282801561035b57602002820191906000526020600020905b815481526020019060010190808311610347575b505050918352505060018201546020808301919091526002909201546040918201528251918301519201519097919650945092505050565b6000838152602081905260408120600201546103c5576000848152602081905260409020600281018590556001018290555b60008481526020818152604080832080546001818101835591855283852001879055868452808352818420805491820181558452918320909101869055518391859187917f480000bb1edad8ca1470381cc334b1917fbd51c6531f3a623ea8e0ec7e38a6e991a45060019392505050565b6000818152600260208181526040808420815160a0810183528154815260018201546001600160a01b03169381019390935292830180548594928401919061047d906117be565b80601f01602080910402602001604051908101604052809291908181526020018280546104a9906117be565b80156104f65780601f106104cb576101008083540402835291602001916104f6565b820191906000526020600020905b8154815290600101906020018083116104d957829003601f168201915b5050505050815260200160038201805461050f906117be565b80601f016020809104026020016040519081016040528092919081815260200182805461053b906117be565b80156105885780601f1061055d57610100808354040283529160200191610588565b820191906000526020600020905b81548152906001019060200180831161056b57829003601f168201915b505050505081526020016004820180546105a1906117be565b80601f01602080910402602001604051908101604052809291908181526020018280546105cd906117be565b801561061a5780601f106105ef5761010080835404028352916020019161061a565b820191906000526020600020905b8154815290600101906020018083116105fd57829003601f168201915b5050509190925250508151919250506106715760405162461bcd60e51b815260206004820152601460248201527310db185a5b48191bd95cc81b9bdd08195e1a5cdd60621b60448201526064015b60405180910390fd5b805160009081526003602052604081209061068c82866111bb565b8254909150829061069f906001906117a7565b815481106106bd57634e487b7160e01b600052603260045260246000fd5b90600052602060002001548282815481106106e857634e487b7160e01b600052603260045260246000fd5b90600052602060002001819055508180548061071457634e487b7160e01b600052603160045260246000fd5b600082815260208082208301600019908101839055909201909255868252600290819052604082208281556001810180546001600160a01b0319169055919061075f90830182611377565b61076d600383016000611377565b61077b600483016000611377565b5050602083015183516040516001600160a01b039092169187907f613cac6bb32cfea708f1733170620dceb8f2225421c7b71f2725a86795cf016b90600090a4506001949350505050565b6000828152602081905260408120600201546108195760405162461bcd60e51b815260206004820152601260248201527112d95e48191bd95cc81b9bdd08195e1a5cdd60721b6044820152606401610668565b60008381526020819052604081206108319084611251565b60008581526020819052604090205490915081106108915760405162461bcd60e51b815260206004820152601960248201527f507572706f7365206e6f7420666f756e6420666f72206b6579000000000000006044820152606401610668565b600084815260208190526040902080546108ad906001906117a7565b815481106108cb57634e487b7160e01b600052603260045260246000fd5b9060005260206000200154600080868152602001908152602001600020600001828154811061090a57634e487b7160e01b600052603260045260246000fd5b6000918252602080832090910192909255858152908190526040902080548061094357634e487b7160e01b600052603160045260246000fd5b60008281526020808220830160001990810183905590920190925584825260019052604081209061097482876112e6565b82549091508290610987906001906117a7565b815481106109a557634e487b7160e01b600052603260045260246000fd5b90600052602060002001548282815481106109d057634e487b7160e01b600052603260045260246000fd5b9060005260206000200181905550818054806109fc57634e487b7160e01b600052603160045260246000fd5b600190038181906000526020600020016000905590556000808781526020019081526020016000206001015485877f585a4aef50f8267a92b32412b331b20f7f8b96f2245b253b9cc50dcc621d339760405160405180910390a4600193505050505b92915050565b60016020528160005260406000208181548110610a8057600080fd5b90600052602060002001600091509150505481565b6000610a5e826003610e70565b60036020528160005260406000208181548110610a8057600080fd5b600081815260016020908152604091829020805483518184028101840190945280845260609392830182828015610b1457602002820191906000526020600020905b815481526020019060010190808311610b00575b50505050509050919050565b6040805160a0810182528681526001600160a01b038681166020808401918252838501888152606085018890526080850187905260008c815260028084529681208651815593516001850180546001600160a01b031916919096161790945551805193958594610b979391850192909101906113b6565b5060608201518051610bb39160038401916020909101906113b6565b5060808201518051610bcf9160048401916020909101906113b6565b505050600087815260036020908152604080832080546001810182559084529190922001899055516001600160a01b0387169088908a907f0ad96ff5732fc2c3c4bb6419ad7e78bfd0388f53c5b3d9bf36613296f71f980890610c37908a908a908a90611708565b60405180910390a4506001979650505050505050565b6000818152600260208181526040808420815160a0810183528154815260018201546001600160a01b0316938101939093529283018054859460609485948594889492939291840191610c9f906117be565b80601f0160208091040260200160405190810160405280929190818152602001828054610ccb906117be565b8015610d185780601f10610ced57610100808354040283529160200191610d18565b820191906000526020600020905b815481529060010190602001808311610cfb57829003601f168201915b50505050508152602001600382018054610d31906117be565b80601f0160208091040260200160405190810160405280929190818152602001828054610d5d906117be565b8015610daa5780601f10610d7f57610100808354040283529160200191610daa565b820191906000526020600020905b815481529060010190602001808311610d8d57829003601f168201915b50505050508152602001600482018054610dc3906117be565b80601f0160208091040260200160405190810160405280929190818152602001828054610def906117be565b8015610e3c5780601f10610e1157610100808354040283529160200191610e3c565b820191906000526020600020905b815481529060010190602001808311610e1f57829003601f168201915b5050509190925250508151602083015160408401516060850151608090950151929c919b5099509297509550909350505050565b60008281526020818152604080832080548251818502810185019093528083528493830182828015610ec157602002820191906000526020600020905b815481526020019060010190808311610ead575b5050505050905060005b8151811015610f205783828281518110610ef557634e487b7160e01b600052603260045260246000fd5b60200260200101511415610f0e57600192505050610a5e565b80610f18816117f9565b915050610ecb565b506000949350505050565b600081815260036020908152604091829020805483518184028101840190945280845260609392830182828015610b145760200282019190600052602060002090815481526020019060010190808311610b005750505050509050919050565b600260208190526000918252604090912080546001820154928201805491936001600160a01b03169291610fbe906117be565b80601f0160208091040260200160405190810160405280929190818152602001828054610fea906117be565b80156110375780601f1061100c57610100808354040283529160200191611037565b820191906000526020600020905b81548152906001019060200180831161101a57829003601f168201915b50505050509080600301805461104c906117be565b80601f0160208091040260200160405190810160405280929190818152602001828054611078906117be565b80156110c55780601f1061109a576101008083540402835291602001916110c5565b820191906000526020600020905b8154815290600101906020018083116110a857829003601f168201915b5050505050908060040180546110da906117be565b80601f0160208091040260200160405190810160405280929190818152602001828054611106906117be565b80156111535780601f1061112857610100808354040283529160200191611153565b820191906000526020600020905b81548152906001019060200180831161113657829003601f168201915b5050505050905085565b60008181526020818152604091829020805483518184028101840190945280845260609392830182828015610b145760200282019190600052602060002090815481526020019060010190808311610b005750505050509050919050565b6000805b835481101561121357828482815481106111e957634e487b7160e01b600052603260045260246000fd5b90600052602060002001541415611201579050610a5e565b8061120b816117f9565b9150506111bf565b5060405162461bcd60e51b815260206004820152601260248201527110db185a5b481251081b9bdd08199bdd5b9960721b6044820152606401610668565b6000805b83548110156112a9578284828154811061127f57634e487b7160e01b600052603260045260246000fd5b90600052602060002001541415611297579050610a5e565b806112a1816117f9565b915050611255565b5060405162461bcd60e51b8152602060048201526011602482015270141d5c9c1bdcd9481b9bdd08199bdd5b99607a1b6044820152606401610668565b6000805b835481101561133e578284828154811061131457634e487b7160e01b600052603260045260246000fd5b9060005260206000200154141561132c579050610a5e565b80611336816117f9565b9150506112ea565b5060405162461bcd60e51b815260206004820152600d60248201526c12d95e481b9bdd08199bdd5b99609a1b6044820152606401610668565b508054611383906117be565b6000825580601f1061139557506113b3565b601f0160209004906000526020600020908101906113b3919061143a565b50565b8280546113c2906117be565b90600052602060002090601f0160209004810192826113e4576000855561142a565b82601f106113fd57805160ff191683800117855561142a565b8280016001018555821561142a579182015b8281111561142a57825182559160200191906001019061140f565b5061143692915061143a565b5090565b5b80821115611436576000815560010161143b565b600082601f83011261145f578081fd5b813567ffffffffffffffff8082111561147a5761147a61182a565b604051601f8301601f19908116603f011681019082821181831017156114a2576114a261182a565b816040528381528660208588010111156114ba578485fd5b8360208701602083013792830160200193909352509392505050565b6000602082840312156114e7578081fd5b5035919050565b60008060408385031215611500578081fd5b50508035926020909101359150565b60008060008060008060c08789031215611527578182fd5b863595506020870135945060408701356001600160a01b038116811461154b578283fd5b9350606087013567ffffffffffffffff80821115611567578384fd5b6115738a838b0161144f565b94506080890135915080821115611588578384fd5b6115948a838b0161144f565b935060a08901359150808211156115a9578283fd5b506115b689828a0161144f565b9150509295509295509295565b6000806000606084860312156115d7578283fd5b505081359360208301359350604090920135919050565b60008060408385031215611500578182fd5b6000815180845260208085019450808401835b8381101561162f57815187529582019590820190600101611613565b509495945050505050565b60008151808452815b8181101561165f57602081850181015186830182015201611643565b818111156116705782602083870101525b50601f01601f19169290920160200192915050565b6020808252825182820181905260009190848201906040850190845b818110156116bd578351835292840192918401916001016116a1565b50909695505050505050565b6000602082526116dc6020830184611600565b9392505050565b6000606082526116f66060830186611600565b60208301949094525060400152919050565b60006060825261171b606083018661163a565b828103602084015261172d818661163a565b90508281036040840152611741818561163a565b9695505050505050565b8581526001600160a01b038516602082015260a0604082018190526000906117759083018661163a565b8281036060840152611787818661163a565b9050828103608084015261179b818561163a565b98975050505050505050565b6000828210156117b9576117b9611814565b500390565b6002810460018216806117d257607f821691505b602082108114156117f357634e487b7160e01b600052602260045260246000fd5b50919050565b600060001982141561180d5761180d611814565b5060010190565b634e487b7160e01b600052601160045260246000fd5b634e487b7160e01b600052604160045260246000fdfea26469706673582212204f47123df15981bd42f4f5fb25a71986ac5eec3feb3dc589f0acc2c519e5f39b64736f6c63430008020033",
  "immutableReferences": {},
  "source": "// SPDX-License-Identifier: MIT\r\npragma solidity ^0.8.0;\r\n\r\nimport \"./ERC725.sol\";\r\nimport \"./ERC735.sol\";\r\n\r\ncontract Identity is ERC725, ERC735 {\r\n    uint256 public constant ECDSA_KEY = 1;\r\n\r\n    constructor(address _initialManagementKey) {\r\n        // Initialize with a management key\r\n        addKey(keccak256(abi.encodePacked(_initialManagementKey)), MANAGEMENT_KEY, ECDSA_KEY);\r\n    }\r\n}\r\n",
  "sourcePath": "/compiler/contracts/implementation/identity/Identity.sol",
  "compiler": {
    "name": "solc",
    "version": "0.8.2+commit.661d1103.Emscripten.clang"
  },
  "schemaVersion": "3.4.16",
  "updatedAt": "2024-11-19T23:23:57.788Z",
  "networkType": "ethereum",
  "devdoc": {
    "kind": "dev",
    "methods": {},
    "version": 1
  },
  "userdoc": {
    "kind": "user",
    "methods": {},
    "version": 1
  }
}